:020000040800F2
:10000000F806002001010008670900085F090008E0
:1000100063090008E7010008A51A000800000000B5
:10002000000000000000000000000000E90C0008D3
:100030001108000800000000ED090008D50D0008B7
:100040001B0100081B0100081B0100081B01000820
:100050001B0100081B0100081B0100081B01000810
:100060001B0100081B0100081B0100081B01000800
:100070001B0100081B0100081B010008A107000864
:100080001B0100081B0100081B0100081B010008E0
:10009000B91900081B0100081B0100081B0100081A
:1000A0001B0100081B0100081B0100081B010008C0
:1000B0001B0100081B0100081B0100081B010008B0
:1000C0001B0100081B0100081B0100081B010008A0
:1000D0001B010008C11600082D1700084D17000865
:1000E0001B0100081B0100081B010008DFF80CD0F1
:1000F00000F03CF800480047511C0008F8060020BA
:100100000648804706480047FEE7FEE7FEE7FEE7B1
:10011000FEE7FEE7FEE7FEE7FEE7FEE7810E0008EA
:10012000ED00000810B5002200E0521C835C8C5CDE
:10013000A34201D1002BF8D1D8B2E1B2401A10BDD0
:1001400030B50B46014600202022012409E021FAA7
:1001500002F59D4205D303FA02F5491B04FA02F5A4
:100160002844151EA2F10102F1DC30BD064C074DFA
:1001700006E0E06840F0010394E807009847103477
:10018000AC42F6D3FFF7B6FFB01C0008D01C000845
:1001900070B58C1810F8015B15F0070301D110F849
:1001A000013B2A1106D110F8012B03E010F8016B76
:1001B00001F8016B5B1EF9D12B0705D40023521EF9
:1001C0000DD401F8013BFAE710F8013BCB1A921C61
:1001D00003E013F8015B01F8015B521EF9D5A1425F
:1001E000D8D3002070BD00BFFEE7000010B5044664
:1001F0000B48844209D10121480600F009FC002186
:100200004FF0007000F004FC08E00121880600F0C7
:10021000FFFB00214FF0806000F0FAFB10BD0000F2
:100220000064004010B50021837A012202FA03F134
:100230003D4A126842F001023B4B1A603A4A1C32B6
:1002400012688A43384B1C331A60027BCAB9364A9B
:100250000C3212688A43344B0C331A604288C388CC
:1002600042EA0343304A4032847A42F8343002880A
:10027000838842EA03432C4A4032847A02EBC40268
:100280005360027B012A19D1274A0C3212680A43B3
:10029000254B0C331A604288038842EA0343224A02
:1002A0004032847A42F83430C288838842EA034379
:1002B0001D4A4032847A02EBC4025360C27A3AB9D2
:1002C000194A121D12688A43174B1B1D1A6006E05B
:1002D000154A121D12680A43134B1B1D1A6002892E
:1002E00032B9114A143212688A430F4B14331A6020
:1002F0000289012A06D10C4A143212680A430A4BB9
:1003000014331A60427B012A06D1074A1C32126854
:100310000A43054B1C331A60034A126822F001029B
:10032000014B1A6010BD0000006600401AB143691D
:100330000B43436102E043698B434361704730B52F
:10034000024600200023146824F00204146014689C
:1003500044F00104146000E05B1C546804F00104E4
:100360001CB94FF6FF74A342F6D1546804F001049F
:100370000CB900206CE08C79012C04D1146844F095
:100380008004146003E0146824F080041460CC79C5
:10039000012C04D1146844F04004146003E0146894
:1003A00024F0400414600C7A012C04D1146844F049
:1003B0002004146003E0146824F0200414604C7AD4
:1003C000012C04D1146844F01004146003E0146894
:1003D00024F0100414608C7A012C04D1146844F0C9
:1003E0000804146003E0146824F008041460CC7A54
:1003F000012C04D1146844F00404146003E0146870
:1004000024F0040414608C78A407CD7844EA0564D1
:100410000D7944EA05444D7944EA05540D886D1E72
:100420002C43D461146824F001041460002300E01C
:100430005B1C546804F001041CB14FF6FF74A34226
:10044000F6D1546804F001040CB1002000E0012052
:1004500030BD10B500F5D87303EB01131B6803F032
:1004600004031372137A53B900F5D87303EB011325
:100470001B6840F2FF7404EA5353136009E000F56F
:10048000D87303EB01131B686FF0604404EAD303D5
:10049000536000F5D87303EB01131B6803F00203EC
:1004A000537200F5D87303EB01135B6803F00F037D
:1004B000937200F5D87303EB01135B681B0AD374C6
:1004C00000F5D87303EB01139B68D37200F5D87362
:1004D00003EB01139B681C0A147300F5D87303EB3C
:1004E00001139B681C0C547300F5D87303EB0113C4
:1004F0009B681B0E937300F5D87303EB0113DB6845
:10050000D37300F5D87303EB0113DB681C0A147472
:1005100000F5D87303EB0113DB681C0C547400F571
:10052000D87303EB0113DB681B0E937421B9C36806
:1005300043F02003C36003E0036943F02003036139
:1005400010BD00218171C171017241728172C1724D
:100550008170C1700321017102214171012101806B
:10056000704710B502460020936803F08063B3F132
:10057000806F00D110E0936803F00063B3F1006F67
:1005800001D1012008E0936803F08053B3F1805F4C
:1005900001D1022000E00420042874D002F5C073C9
:1005A00003EB00131B6803F0010402F5C07303EBB7
:1005B00000131C600B7A7BB94B7A0C8843EA4453D6
:1005C00002F5C07404EB00142468234302F5C074E0
:1005D00004EB0014236010E00B7A4C6843EAC40378
:1005E0004C7A234302F5C07404EB001424682343BF
:1005F00002F5C07404EB001423608B7A03F00F0340
:100600008B7202F5C07303EB00135B6823F00F04D9
:1006100002F5C07303EB00135C6002F5C07303EBDB
:1006200000135B688C7A234302F5C07404EB00145A
:1006300063608B7B1C064B7B44EA03440B7B44EAE0
:100640000323CC7A234302F5C07404EB0014A360A7
:100650008B7C1C064B7C44EA03440B7C44EA03235A
:10066000CC7B234302F5C07404EB0014E36002F575
:10067000C07303EB00131B6843F0010402F5C07361
:1006800003EB00131C6010BD10B50246002321B11E
:10069000012907D002290FD109E090681D4C00EA1A
:1006A00004030BE090681C4C00EA040306E0906829
:1006B0001A4C00EA040301E0002300BF00BF184CFD
:1006C000181BA34216D007DC83B16FF0806018447A
:1006D00070B1022818D111E0B0F5007F10D0114C94
:1006E000204448B1B0F5003F0ED10BE002230DE0ED
:1006F00000230BE0002309E0002307E0012305E0CD
:10070000012303E0012301E0002300BF00BFD8B2B2
:1007100010BD0000030000040003000800000310E7
:10072000000100080001FFF710B5044600F0A0F931
:100730004FF4803000F05EFA00F0BAFA1749087002
:1007400008460078012826D1102000F063F8022026
:1007500000F06EF8002000F041FA002000F07CFA72
:100760004FF4806000F06CFA21464FF4803000F0C6
:1007700085FA012000F07CFA00BF392000F008FA69
:100780000028FAD0022000F087FA00BF00F01EFA1D
:100790000828FBD101E000BFFEE710BD00000020EB
:1007A00010B54FF4003000F01DF838B10449054889
:1007B00000F036FF4FF4E02000F006F810BD000016
:1007C000BC0200205002002000F0805111B103490A
:1007D000086001E0024948607047000004040240DC
:1007E0000000024001460020002201F0805313B1B6
:1007F000054B1A6801E0054B1A6802EA01030BB1C8
:10080000012000E000207047000402400000024088
:10081000704700000549096821F01001034A116082
:100820001146096801431160704700000020024032
:1008300001460020034A106800F0380008431060A9
:1008400070470000002002402DE9F04102460025DB
:100850000026002000230024002791F803C00CF09C
:100860000F0591F803C00CF0100CBCF1000F03D081
:1008700091F802C04CEA050591F800C0BCF1000FE8
:1008800031D0146800202BE04FF0010C0CFA00F37B
:10089000B1F800C00CEA03069E4220D183004FF05D
:1008A0000F0C0CFA03F7BC4305FA03FC4CEA0404F2
:1008B00091F803C0BCF1280F06D14FF0010C0CFADF
:1008C00000FCC2F814C00AE091F803C0BCF1480F64
:1008D00005D14FF0010C0CFA00FCC2F810C0401C0E
:1008E0000828D1D31460B1F800C0BCF1FF0F34DD8B
:1008F000546800202EE000F1080C4FF0010808FABF
:100900000CF3B1F800C00CEA03069E4221D183002B
:100910004FF00F0C0CFA03F7BC4305FA03FC4CEA4A
:10092000040491F803C0BCF1280F05D100F1080CB4
:1009300008FA0CF8C2F8148091F803C0BCF1480F13
:1009400007D100F1080C4FF0010808FA0CF8C2F8C2
:100950001080401C0828CED35460BDE8F08100BF51
:10096000FEE700BFFEE7704770B5002100230F22AD
:10097000C47804B3154C246804F4E064C4F5E0645E
:10098000210AC1F10403CA40447804FA03F18478CF
:100990001440214309010E4C0678A155047804F057
:1009A0001F050124AC4005786D11AD0005F1E0256F
:1009B000C5F8004109E0047804F01F050124AC40AB
:1009C000044D0678761145F8264070BD0CED00E028
:1009D00000E400E080E100E002490143024A1160C6
:1009E000704700000000FA050CED00E070470000C1
:1009F00029B1064AD2690243044BDA6104E0034A92
:100A0000D2698243014BDA61704700000010024056
:100A100029B1064A12690243044B1A6104E0034AF1
:100A200012698243014B1A617047000000100240B6
:100A300029B1064A92690243044B9A6104E0034AD1
:100A400092698243014B9A61704700000010024096
:100A500029B1064AD2680243044BDA6004E0034A33
:100A6000D2688243014BDA607047000000100240F8
:100A70000F48006840F001000D49086008464068D2
:100A80000C4908400A494860084600680A4908407D
:100A9000074908600846006820F48020086008467E
:100AA000406820F4FE0048604FF41F0088607047E3
:100AB000001002400000FFF8FFFFF6FE30B50021F5
:100AC0000022002400232D4D6D6805F00C0121B19A
:100AD000042905D0082923D105E0294D056022E02D
:100AE000274D05601FE0254D6D6805F47012234DFC
:100AF0006D6805F48034022505EB92421CB9214D46
:100B0000554305600BE01D4D6D6805F400351DB1C2
:100B10001C4D5543056002E0194D5543056002E048
:100B2000174D056000BF00BF144D6D6805F0F00162
:100B30000909154D6B5C0568DD4045600F4D6D681A
:100B400005F4E061090A104D6B5C4568DD40856085
:100B50000A4D6D6805F46051C90A0B4D6B5C456820
:100B6000DD40C560054D6D6805F44041890B074DBA
:100B70006B5CC568B5FBF3F5056130BD0010024044
:100B800000127A0000093D0000020020100200203F
:100B900010B501460022002300204A11012A02D18B
:100BA000094C236806E0022A02D1074C236A01E0BF
:100BB000054C636A01F01F02012494401C400CB1F3
:100BC000012000E0002010BD0010024002484068F3
:100BD00000F00C00704700000010024001460020A9
:100BE000034A506820F0F00008435060704700004E
:100BF000001002401149096821F480310F4A116048
:100C00001146096821F480211160B0F5803F03D0BE
:100C1000B0F5802F0ED106E00849096841F4803113
:100C2000064A116007E00549096841F4A021034A1A
:100C3000116000E000BF00BF7047000000100240DC
:100C400001460020034A506820F4E06008435060E9
:100C5000704700000010024001460020034A50681F
:100C600020F4605040EAC10050607047001002401C
:100C70000149086670470000000042420246002019
:100C8000044B586820F47C1042EA01031843014BDE
:100C9000586070470010024001460020034A506827
:100CA00020F003000843506070470000001002402D
:100CB00038B5002000900024002500BF3120FFF748
:100CC00067FF05460098401C00900098B0F5A06FA3
:100CD00001D0002DF2D03120FFF75AFF08B10124D6
:100CE00000E00024204638BD704710B500F002F83F
:100CF00010BD00000CB50020019000903348006842
:100D000040F480303149086000BF3048006800F48A
:100D1000003000900198401C0190009818B901988B
:100D2000B0F5A06FF1D12948006800F4003010B18F
:100D30000120009001E0002000900098012843D19C
:100D40002348006840F01000214908600846006808
:100D500020F0030008600846006840F002000860C8
:100D60001A48406819494860084640684860084683
:100D7000406840F4806048600846406820F47C1079
:100D800048600846406840F4E8104860084600683B
:100D900040F08070086000BF0C48006800F00070F0
:100DA0000028F9D00948406820F00300074948604E
:100DB0000846406840F00200486000BF03484068B1
:100DC00000F00C000828F9D10CBD00000010024012
:100DD0000020024010B500F0E3F910BD10B500216D
:100DE00000200022214B5B6803F00C0121B1042993
:100DF00006D0082928D107E01D4B1E4C236027E0B0
:100E00001B4B1C4C236023E0184B5B6803F47010F1
:100E1000164B5B6803F48032022303EB904022B947
:100E2000154B4343134C23600DE0104B5B6803F4F8
:100E3000003323B1104B43430E4C236003E00C4BB3
:100E400043430C4C236003E0094B0A4C236000BF72
:100E500000BF064B5B68C3F30313084CE15C054B12
:100E60001B68CB40034C236010BD00000010024003
:100E700000127A00EC01002000093D00F001002082
:100E800010B51348006840F0010011490860084699
:100E90004068104908400E494860084600680E49FD
:100EA00008400B4908600846006820F4802008606C
:100EB0000846406820F4FE0048604FF41F00886038
:100EC000FFF713FF4FF000600449086010BD0000F9
:100ED000001002400000FFF8FFFFF6FE08ED00E002
:100EE000CA430282704721B1028842F001020280A7
:100EF00004E002884FF6FE731A400280704700003B
:100F000010B504466848844208D10121C014FFF797
:100F10009FFD0021E014FFF79BFDC4E0B4F1804F7A
:100F200008D101210846FFF773FD00210120FFF7DA
:100F30006FFDB8E05D48844208D101210220FFF72F
:100F400067FD00210220FFF763FDACE058488442B2
:100F500008D101210420FFF75BFD00210420FFF7E9
:100F600057FDA0E05348844208D101210820FFF733
:100F70004FFD00210820FFF74BFD94E04E488442CE
:100F800008D101211020FFF743FD00211020FFF7B9
:100F90003FFD88E04948844208D101212020FFF725
:100FA00037FD00212020FFF733FD7CE044488442D8
:100FB00008D101214014FFF74BFD00216014FFF719
:100FC00047FD70E03F48844209D10121C804FFF782
:100FD0003FFD00214FF40020FFF73AFD63E03A485F
:100FE000844209D101210805FFF732FD00214FF4A9
:100FF0008010FFF72DFD56E03448844209D10121CD
:101000004805FFF725FD00214FF40010FFF720FDF4
:1010100049E02F48844208D101214020FFF7F8FC25
:1010200000214020FFF7F4FC3DE02A48844208D12B
:1010300001218020FFF7ECFC00218020FFF7E8FC75
:1010400031E02548844208D101218015FFF7E0FCFA
:101050000021A015FFF7DCFC25E02048844209D1DF
:1010600001210804FFF7F4FC00214FF48030FFF762
:10107000EFFC18E01A48844209D101214804FFF727
:10108000E7FC00214FF40030FFF7E2FC0BE01548CD
:10109000844208D101218804FFF7DAFC00214FF4D3
:1010A0008020FFF7D5FC10BD002C0140000400405B
:1010B00000080040000C00400010004000140040F8
:1010C00000340140004C01400050014000540140F8
:1010D00000180040001C004000200040004001407B
:1010E000004401400048014002460020138A0B40A2
:1010F0000BB1012000E000207047000000220288B0
:101100001D4B98420ED01D4B98420BD0B0F1804F32
:1011100008D01B4B984205D01A4B984202D01A4B6C
:10112000984204D14FF68F731A404B881A43174BDD
:10113000984207D0164B984204D04FF6FF431A400E
:10114000CB881A4302808B8883850B8803850A4BE2
:1011500098420BD0094B984208D00E4B984205D0CC
:101160000D4B984202D00D4B984201D10B7A038669
:101170000123838270470000002C014000340140AD
:101180000004004000080040000C00400010004037
:10119000001400400040014000440140004801406C
:1011A0000448006820B103480068401E01490860F7
:1011B0007047000004000020F0B589B00121084606
:1011C000FFF736FC01210420FFF732FC48208DF8A0
:1011D00003004FF40060ADF8000003208DF802001A
:1011E00069465148FFF730FB18208DF803004FF493
:1011F0008050ADF8000003208DF8020069464A488F
:10120000FFF722FB01214806FFF7F2FB4748FEF7F4
:10121000EDFF06A8FFF795F900208DF81E008DF868
:101220001F008DF820008DF821008DF8220001208C
:101230008DF8230000208DF81A008DF81B00022085
:101240008DF81C0001208DF81D000620ADF8180057
:1012500006A93648FFF773F801208DF81200002028
:101260008DF813008DF81400ADF80800ADF80A00F1
:10127000ADF80C00ADF80E00ADF8100001208DF8AF
:10128000150002A8FEF7CEFF0020024603460146E5
:10129000C1F10707042F01D9042701E0C1F10707B5
:1012A0003E460F1D072F01D2002700E0CF1E3D460E
:1012B0000127B7407F1E1740AF404FF0010C0CFADA
:1012C00005FCACF1010C0CEA030C47EA0C07BCB2BC
:1012D00014202146002807DA0A07150E144A00F0E8
:1012E0000F031B1FD55403E00A07130E114A1354B2
:1012F00000BF4FF4A060FFF76FFB14208DF80400CF
:1013000000208DF8050002208DF8060001208DF8E0
:10131000070001A8FFF728FB012202210348FFF77D
:1013200005F809B0F0BD000000080140006400406D
:1013300018ED00E000E400E02DE9F04385B08046C0
:1013400089460826CDF80080002001908DF809001C
:101350008DF808008DF80A6000BF05E019F800203C
:101360000DF10B010A54401CB042F7DB69460A48F4
:10137000FFF7F7F80446002705E021460648FFF787
:1013800083F905467F1C012D03D04FF6FF7087427D
:10139000F3D105B0BDE8F0830064004010B5094802
:1013A000FFF7AEFD01210220FFF722FB4FF6FF7091
:1013B0000549888000200880C88048800148FFF7E0
:1013C0009DFE10BD000400404602002070B504469A
:1013D00047201049088040F2E73088800E48FFF728
:1013E0008DFE002513E001210B48FFF779FD012157
:1013F0000948FFF778FD00BF01210748FFF774FE99
:101400000028F9D000210448FFF76DFD6D1CA542AE
:10141000E9D370BD460200200004004000B587B04B
:1014200001210846FFF704FB01210820FFF700FB1C
:1014300018208DF81B004FF48060ADF818000320D1
:101440008DF81A0006A92948FFF7FEF901210820A6
:10145000FFF7EEFA28208DF81B004FF40060ADF87E
:10146000180003208DF81A0006A92048FFF7ECF9B0
:1014700001218804FFF7BCFA4FF4165002900020B7
:10148000ADF814000C20ADF812000020ADF81000EB
:10149000ADF80E00ADF80C0002A9154800F016FAE0
:1014A0004FF4A060FFF798FA27208DF80400002081
:1014B0008DF8050004208DF8060001208DF8070046
:1014C00001A8FFF751FA002240F22441084800F039
:1014D000D7F9002240F22551054800F0D1F9012149
:1014E000034800F08AF907B000BD0000000C01407D
:1014F0000048004010B586B004461FA000F078F800
:101500004FF4FA60FFF762FF22461DA101A800F028
:10151000CBFA01A800F06CF84FF4FA60FFF756FF21
:101520001AA000F065F84FF4FA60FFF74FFF1AA019
:1015300000F05EF84FF4FA60FFF748FF19A000F0E2
:1015400057F84FF4FA60FFF741FF0021194800F007
:1015500054F9012240F22441164800F091F9012289
:1015600040F22551134800F08BF90121114800F099
:1015700044F906B010BD0000415445310D0A000089
:1015800041542B4950523D25640D0A0041542B43D0
:101590004D47463D310D0A0041542B434C49503DC7
:1015A000310D0A0041542B434E4D493D322C320D32
:1015B0000A0000000048004070B5002644F620658F
:1015C00008A000F015F800BF084800680128FBD10A
:1015D000281EA5F10105F7D10DB1012400E000247A
:1015E000204670BD41540D0A000000001C00002080
:1015F00070B5044625780DE000BF8021074800F053
:1016000008F90128F9D12946044800F0D0F9601CF6
:1016100004460578002DEFD170BD00000048004061
:1016200010B50A460023002114E0445C242C10D19C
:101630004C1C045D562C0CD18C1C045D692C08D10B
:10164000CC1C045D612C04D10C1D045D6D2C00D1FB
:10165000CBB2491C3529E8DB00210CE05C18352CA5
:1016600003DA5C18045D545404E0C3F135040C1B28
:10167000045D5454491C3529F0DB10BD10B50446F7
:101680000B492046FEF74EFD30B90120094908708C
:1016900000200949087009E008492046FEF742FD8C
:1016A00020B90020034908700349087010BD0000EC
:1016B000BA0100202300002024000020D2010020D5
:1016C00010B5002440F22551154800F0AFF828B3BA
:1016D000134800F067F9C4B21248007850B9242CBE
:1016E00008D1104801780078401C0E4A10700E484E
:1016F000445407E00B4801780078401C094A1070F8
:10170000094844540A2C09D100200749054A127897
:101710008854044908700448FFF7B0FF10BD00006A
:1017200000380140220000208502002010B540F260
:101730002551054800F07AF820B140F225510248C1
:1017400000F04CF810BD00000044004010B540F21D
:1017500025511B4800F06AF858B1194800F022F9E9
:10176000C1B2184802780078401C164B1870164811
:10177000815440F22441124800F058F8F0B10020A2
:101780001049087011A11048FEF7CCFCB0B9012037
:101790001149086000210A4800F02FF8002240F2A9
:1017A0002441074800F06CF8002240F2255104481B
:1017B00000F066F80121024800F01FF810BD00009B
:1017C00000480040200000203C02002041540D0D44
:1017D0000A4F4B0D0A0000001C00002010B500222B
:1017E000002340F66A14A14200D100BF0A1201246E
:1017F0009440A3B2DC43048010BD21B1828942F43D
:101800000052828104E082894DF6FF731A40828182
:10181000704702460020B1F5007F00D100BF138859
:101820000B400BB1012000E00020704770B502466C
:10183000002400230025002040F66A16B14200D1A2
:1018400000BFC1F3421501F01F03012606FA03F39E
:10185000012D02D19689334006E0022D02D1168A6D
:10186000334001E0968A33400C12012606FA04F454
:101870001688344013B10CB1012000E0002070BD87
:10188000F0B50346002400260025002040F66A1724
:10189000B94200D100BF1846C1F3421401F01F063F
:1018A000012707FA06F5012C01D10C3004E0022CC7
:1018B00001D1103000E014301AB107682F430760DF
:1018C00002E00768AF430760F0BD00002DE9F04774
:1018D00086B005460E460024A24600BFA14600275A
:1018E000B08900B100BF2F462C8A4CF6FF7004402F
:1018F000F08804432C82AC894EF6F3100440B08883
:1019000031890843718908430443AC81AC8A4FF69E
:10191000FF400440B0890443AC8201A8FFF7CEF831
:101920001F48874202D1DDF810A001E0DDF80CA0CD
:10193000A88900F4004040B10AEBCA0000EB0A108D
:1019400031684900B0FBF1F807E00AEBCA0000EB90
:101950000A1031688900B0FBF1F86420B8FBF0F0A0
:1019600004012009642101FB1089A88900F40040CA
:1019700040B1322000EBC900B0FBF1F000F00700ED
:10198000044308E0322000EB09106421B0FBF1F0C1
:1019900000F00F0004432C8106B0BDE8F087000082
:1019A0000038014001468888C0F308007047C1F341
:1019B000080282807047000010B5064A00210648E0
:1019C000FEF747FD03490B314FF40070FFF7B4FCFD
:1019D00010BD0000280200200064004000B587B060
:1019E00001210846FFF724F801210420FFF720F821
:1019F00018208DF81B000420ADF8180003208DF886
:101A00001A0006A92548FEF71FFF01210420FFF751
:101A10000FF828208DF81B000820ADF818000320CF
:101A20008DF81A0006A91D48FEF70EFF0121480493
:101A3000FEF7DEFF4FF4E13002900020ADF8140015
:101A40000C20ADF812000020ADF81000ADF80E002B
:101A5000ADF80C0002A91248FFF738FF4FF4A06060
:101A6000FEF7BAFF26208DF8040000208DF805004F
:101A700003208DF8060001208DF8070001A8FEF76D
:101A800073FF012240F225510548FFF7F9FE0121BD
:101A90000348FFF7B2FE07B000BD00000008014098
:101AA0000044004000BFFEE70FB4084B10B504A986
:101AB00002AA039800F01CF8044602A9002000F0D6
:101AC000C1F8204610BC5DF814FB0000451C00085E
:101AD00002E008C8121F08C1002AFAD170477047F7
:101AE000002001E001C1121F002AFBD17047000055
:101AF0002DE9FF4F89B09B460446002506E02528C6
:101B00000BD05A460B999047641C6D1C2078002816
:101B1000F5D10DB02846BDE8F08F0027B846012268
:101B2000474900E0074314F8013F203B02FA03F065
:101B30000842F7D120782E2819D114F8010F47F068
:101B400004072A280ED06FF02F022078A0F1300170
:101B500009290CD808EB880102EB410100EB0108D0
:101B6000641CF2E70A98641C50F8048B0A902078F1
:101B70000028CED0642808D0692806D075281ED049
:101B80005A460B9990476D1C58E00A994FF00A0984
:101B900001C90A91002802DA40422D2102E03905EC
:101BA00004D52B218DF82010012103E0F90704D082
:101BB0002021F7E78A4608AE0DE00021FAE70A99EE
:101BC0004FF00A0901C90A91F7E74946FEF7B8FA4A
:101BD000303106F8011D0028F7D1ADEB060000F109
:101BE0002009780701D44FF00108C84502DDA8EBB1
:101BF000090000E000208046002706E008A85A46B9
:101C0000C05D0B9990476D1C7F1C5745F6DB04E0C7
:101C100030205A460B9990476D1CB8F10001A8F18D
:101C20000108F5DC05E016F8010B5A460B999047C0
:101C30006D1CB9F10001A9F10109F4DC641C65E730
:101C4000092801000A68531C0B60107070470000DF
:101C50004FF4E010FEF768FD1348FEF72FFF12481F
:101C6000006812490860FFF7B9F8FFF797FBFFF724
:101C7000D5FB41F28830FFF7A9FB4FF41650FFF770
:101C800039FC00BFFFF798FC0128FBD1FFF7A6FE47
:101C90004FF47A70FFF79AFBFFF78EFA4FF47A70E1
:101CA000FFF794FB00BFFEE71402002008000020AD
:101CB000D01C000800000020140200009001000861
:101CC0007C1D000814020020E4040000E01A000853
:101CD000C10009110102030405060708A81E2456C5
:101CE00069616D5F4E6176692C456E61626C654716
:101CF000657444617461436F6D0D0A1E0C1A44696A
:101D0000731FC80D535441525450726F63657373FF
:101D10001A0812184368616E67655F467265715FE5
:101D2000313030487A1F0A1B351E0B1B32351E0915
:101D30001B3C0A1C3178091A1D0A1B3476091B75D5
:101D4000E91DE80C53544F5050726F63657373363E
:101D50000C1365636B1A59150C155F4F4E181B4613
:101D600046192184A24A04680901020304060708EF
:0C1D7000090C69100500020406080000C0
:04000005080000ED02
:00000001FF
