:020000040800F2
:10000000680600209D010008AB160008A316000832
:10001000A71600089B0800087F29000800000000C0
:100020000000000000000000000000000D1A0008A1
:100030005D1400080000000025170008B501000845
:1000400091290008B7010008B7010008B7010008AE
:10005000B7010008B7010008B7010008B7010008A0
:10006000B7010008B7010008B7010008B701000890
:100070000D0F0008A50F0008B7010008B701000820
:10008000C90F0008B7010008B7010008B701000850
:10009000A1080008B7010008B7010008B70100086F
:1000A000B7010008B7010008B7010008B701000850
:1000B000B7010008B7010008B7010008B701000840
:1000C000B7010008B7010008B7010008B701000830
:1000D000B7010008B7010008B7010008B701000820
:1000E00061140008B7010008B7010008B701000853
:1000F000B7010008B7010008B7010008B701000800
:10010000B7010008B7010008B7010008B7010008EF
:10011000B7010008B7010008B7010008DD1B00089F
:10012000A5110008B7010008B7010008B7010008D1
:10013000B7010008B7010008B7010008B7010008BF
:10014000B7010008B7010008B7010008B7010008AF
:10015000E5120008B7010008B7010008B701000860
:10016000B7010008B7010008B7010008B70100088F
:10017000B7010008B7010008B7010008000000003F
:10018000B7010008B7010008DFF80CD000F0AEFAA4
:1001900000480047CD29000868060020064880472F
:1001A00006480047FEE7FEE7FEE7FEE7FEE7FEE75C
:1001B000FEE7FEE7FEE7FEE7791B0008890100087D
:1001C0002DE9FE4F804681EA0300C00F0C460090E7
:1001D00021F0004123F00045B8EB0200A94105D20F
:1001E0004046214690461C460B46024623F00040FE
:1001F000104347D0270DC7F30A00C3F30A510290FA
:10020000401A019040286BDAC3F3130040F4801BBE
:100210000098924620B10023D2EB030A63EB0B0B4C
:1002200001985946C0F14002504600F099F906463F
:100230000D4650465946019A00F0B1F910EB0800FE
:100240006141002487EA115284EAE7731A4340D0DF
:10025000009A62B3019A012A4FEA075215DC001B8B
:1002600061EB02014FF0004202EA0752CDE9004281
:10027000001C41F5801132462B4600F0E8F903B02E
:10028000BDE8F08F40462146F9E7001B61EB020113
:10029000001C41F5801300185B412018A2F50017DF
:1002A00047EB030140EAD570B6196D4111E06D08C6
:1002B0004FEA360645EAC0754FEA0752001B61EB6C
:1002C0000201001C41F5801149084FEA3000001975
:1002D000514132462B4603B0BDE8F04F00F0A8B9BB
:1002E0000098012240000023D0EB020263EBE07390
:1002F000009821464FEAE074B8EB000061EB04017E
:10030000E9E783F000435BE781F0004158E72DE91E
:10031000FE4F81EA030404F0004421F00041009400
:100320004FF0000B23F0004350EA01045ED052EA84
:1003300003045BD0C3F30A54C1F30A552C44A4F25E
:10034000F3340194A0FB0254C1F3130141F4801172
:10035000C3F3130343F4801301FB024400FB034E79
:10036000840A970A44EA815447EA8357A4FB076842
:1003700002958D0A05FB07854FEA932C04FB0C546C
:100380002705029D4FEA065847EA1637B5EB0805E0
:100390006EEB070C870E920E47EA811742EA831232
:1003A000A7FB0201B6EB0B0164EB00042B0D43EA43
:1003B0000C335E1844EB1C50DA465146E7FB020151
:1003C000C5F313044FEA0B3343EA14534FEA0432E4
:1003D000019C43EA0603A4F10C040294009CCDE9BD
:1003E00000B400F034F903B0BDE8F08F00200146FE
:1003F000F9E72DE9F04D81EA030404F0004B21F008
:10040000004514464FF0000A23F0004150EA05026F
:1004100020D054EA01021DD0C5F30A570246C5F3A5
:100420001303C1F31300C1F30A5640F4801543F4DB
:100430008013A7EB0608101BD64608F2FD3873EBB5
:10044000050002D308F1010801E092185B41B8F100
:10045000000F03DA00200146BDE8F08D00204FF4C4
:100460008011064684460EE0171B73EB050705D383
:10047000121B63EB050306434CEA010C49084FEAE3
:10048000300092185B4150EA0107EDD152EA0300B7
:1004900012D082EA040083EA0501084305D0101B4C
:1004A000AB4106D20122002306E000224FF00043B8
:1004B00002E06FF0010253101AEB06004CEB0851FA
:1004C00010EB0A0041EB0B01BDE8F04D00F0B0B8B5
:1004D000C1F30A5210B5C1F3130140F2FF3341F4E6
:1004E00080119A4201DA002010BD40F233439A4253
:1004F000A2F2334203DC524200F041F810BD9040BA
:1005000010BD00F0004230F000400AD0C10D01F5EE
:100510006071C0F3160042EA0151C208400711435E
:10052000704700200146704701F0004330B421F0CD
:10053000004150EA010206D00A0DA2F56072C1F333
:100540001301002A02DC30BC00207047440F44EA4B
:10055000C104C100E01830BC00EBC25000F031B85B
:10056000202A04DB203A00FA02F100207047914073
:10057000C2F1200320FA03F3194390407047202A68
:1005800004DB203A21FA02F00021704721FA02F33D
:10059000D040C2F120029140084319467047202AFA
:1005A00006DBCB17203A41FA02F043EAE07306E09B
:1005B00041FA02F3D040C2F12002914008431946AB
:1005C00070470029A8BF7047401C490008BF20F0B1
:1005D0000100704710B4B0FA80FC00FA0CF050EA49
:1005E000010404BF10BC704749B1CCF1200421FACA
:1005F00004F411FA0CF118BF012121430843A3EBC5
:100600000C01CB1D4FEA00614FEA102042BF0020D1
:1006100010BC704700EBC35010440029A4BF10BCAD
:100620007047401C490008BF20F0010010BC704713
:1006300010B5141E73F1000408DA401C41F10001EA
:1006400092185B411A4301D120F0010010BD2DE941
:10065000F04D92469B4611B1B1FA81F202E0B0FA38
:1006600080F220329046FFF77BFF04460F4640EAB7
:100670000A0041EA0B0153465A46084313D011467B
:1006800053EA010019D0C8F140025046FFF777FF46
:1006900005460E46504659464246FFF761FF08435D
:1006A00005D0012004E020463946BDE8F08D002049
:1006B000054346EAE0762C4337430A986305E40A8B
:1006C000A0EB08000022FD0A44EA47540A3002D594
:1006D00000200146E9E7010510196941DDE90845F7
:1006E00000196941BDE8F04DA2E70000064C074D36
:1006F00006E0E06840F0010394E8070098471034F2
:10070000AC42F6D3FFF744FD6C2A00088C2A00089F
:1007100021B1826842F00102826003E0826822F027
:1007200001028260704700000021084A1168084AEF
:100730001140D0E900231A4383681A43C3681A435F
:100740001143044AC2F80413704700000423014017
:10075000E030FCFF0020014021B1826842F4807249
:10076000826003E0826822F480728260704721B167
:10077000826842F40072826003E0826822F40072B0
:100780008260704730B50246002000235068104C4C
:1007900020400D790C6844EA05242043506090689D
:1007A0000C4C2040D1E903542C438D682C434D79E7
:1007B00044EA450420439060D06A20F470000C7D28
:1007C000641EE4B2234340EA0350D06230BD00000F
:1007D000FFFEFFFCFDF7FFC0F0B504460D4600200C
:1007E0000021092D11DDE068A5F10A0606EB460798
:1007F000072606FA07F18843A5F10A0606EB460626
:1008000003FA06F10843E0600CE0206905EB4507B8
:10081000072606FA07F1884305EB450603FA06F1B9
:1008200008432061072A0FDA606B561E06EB860725
:100830001F2606FA07F18843561E06EB860605FAC0
:1008400006F10843606322E00D2A0FDA206BD61F01
:1008500006EB86071F2606FA07F18843D61F06EB2C
:10086000860605FA06F10843206310E0E06AA2F16B
:100870000D0606EB86071F2606FA07F18843A2F14C
:100880000D0606EB860605FA06F10843E062F0BDA8
:10089000816841F080418160704700BFFEE7000041
:1008A00010B5364A0021364800F0A5F933480068F3
:1008B00034490968884260D13048007A00285CD108
:1008C0002E48807A082858D12C480B3001F06CFA59
:1008D0002A49897C884250D12848C07A41281CD1B5
:1008E0002648007B522818D12448407B4D2814D13B
:1008F0002248807B322810D12048C07B43280CD16D
:100900001E48007C482808D11C48407C452804D15A
:1009100001201D49087001F001FB1848C07A5228D7
:100920001AD11648007B452816D11448407B51281F
:1009300012D11248807B41280ED11048C07B4C2830
:100940000AD10E48007C4C2806D10C48407C0A286D
:1009500002D101200D4908700848007B58B90748AA
:10096000C07A052806D10548407BFE2802D1012027
:1009700001F048FD00E000BF00BF10BDFC000020FA
:10098000006400400800002001000020000000205A
:1009900010B504460B48844209D10121480600F0F5
:1009A000E3FE00214FF0007000F0DEFE08E00121C0
:1009B000880600F0D9FE00214FF0806000F0D4FEE0
:1009C00010BD00000064004010B50021837A0122B0
:1009D00002FA03F13D4A126842F001023B4B1A60F1
:1009E0003A4A1C3212688A43384B1C331A60027B25
:1009F000CAB9364A0C3212688A43344B0C331A6037
:100A00004288C38842EA0343304A4032847A42F83B
:100A100034300288838842EA03432C4A4032847A85
:100A200002EBC4025360027B012A19D1274A0C321F
:100A300012680A43254B0C331A604288038842EA45
:100A40000343224A4032847A42F83430C288838891
:100A500042EA03431D4A4032847A02EBC4025360E7
:100A6000C27A3AB9194A121D12688A43174B1B1DE4
:100A70001A6006E0154A121D12680A43134B1B1D2B
:100A80001A60028932B9114A143212688A430F4B34
:100A900014331A600289012A06D10C4A14321268F2
:100AA0000A430A4B14331A60427B012A06D1074AD3
:100AB0001C3212680A43054B1C331A60034A126841
:100AC00022F00102014B1A6010BD000000660040D8
:100AD0001AB143690B43436102E043698B434361AD
:100AE000704730B5024600200023146824F0020449
:100AF0001460146844F00104146000E05B1C546846
:100B000004F001041CB94FF6FF74A342F6D15468F7
:100B100004F001040CB900206CE08C79012C04D1A4
:100B2000146844F08004146003E0146824F0800426
:100B30001460CC79012C04D1146844F04004146092
:100B400003E0146824F0400414600C7A012C04D1F2
:100B5000146844F02004146003E0146824F02004B6
:100B600014604C7A012C04D1146844F01004146011
:100B700003E0146824F0100414608C7A012C04D172
:100B8000146844F00804146003E0146824F00804B6
:100B90001460CC7A012C04D1146844F0040414606D
:100BA00003E0146824F0040414608C78A407CD7862
:100BB00044EA05640D7944EA05444D7944EA055454
:100BC0000D886D1E2C43D461146824F00104146058
:100BD000002300E05B1C546804F001041CB14FF6D4
:100BE000FF74A342F6D1546804F001040CB1002054
:100BF00000E0012030BD10B500F5D87303EB011300
:100C00001B6803F004031372137A53B900F5D87309
:100C100003EB01131B6840F2FF7404EA53531360A3
:100C200009E000F5D87303EB01131B686FF0604413
:100C300004EAD303536000F5D87303EB01131B6878
:100C400003F00203537200F5D87303EB01135B68E2
:100C500003F00F03937200F5D87303EB01135B6885
:100C60001B0AD37400F5D87303EB01139B68D3728E
:100C700000F5D87303EB01139B681C0A147300F58D
:100C8000D87303EB01139B681C0C547300F5D873E5
:100C900003EB01139B681B0E937300F5D87303EBF2
:100CA0000113DB68D37300F5D87303EB0113DB6822
:100CB0001C0A147400F5D87303EB0113DB681C0CD9
:100CC000547400F5D87303EB0113DB681B0E9374A7
:100CD00021B9C36843F02003C36003E0036943F014
:100CE0002003036110BD10B502460020936803F095
:100CF0008063B3F1806F00D110E0936803F000636C
:100D0000B3F1006F01D1012008E0936803F0805334
:100D1000B3F1805F01D1022000E00420042874D0E8
:100D200002F5C07303EB00131B6803F0010402F526
:100D3000C07303EB00131C600B7A7BB94B7A0C88F1
:100D400043EA445302F5C07404EB001424682343BF
:100D500002F5C07404EB0014236010E00B7A4C68B9
:100D600043EAC4034C7A234302F5C07404EB001435
:100D70002468234302F5C07404EB001423608B7ACB
:100D800003F00F038B7202F5C07303EB00135B6873
:100D900023F00F0402F5C07303EB00135C6002F54F
:100DA000C07303EB00135B688C7A234302F5C074B5
:100DB00004EB001463608B7B1C064B7B44EA03440A
:100DC0000B7B44EA0323CC7A234302F5C07404EB83
:100DD0000014A3608B7C1C064B7C44EA03440B7C10
:100DE00044EA0323CC7B234302F5C07404EB0014D4
:100DF000E36002F5C07303EB00131B6843F00104CA
:100E000002F5C07303EB00131C6010BD10B5024661
:100E1000002321B1012907D002290FD109E09068F0
:100E20001D4C00EA04030BE090681C4C00EA04032C
:100E300006E090681A4C00EA040301E0002300BFBA
:100E400000BF184C181BA34216D007DC83B16FF00B
:100E50008060184470B1022818D111E0B0F5007F0D
:100E600010D0114C204448B1B0F5003F0ED10BE03A
:100E700002230DE000230BE0002309E0002307E03C
:100E8000012305E0012303E0012301E0002300BF6B
:100E900000BFD8B210BD000003000004000300082A
:100EA00000000310000100080001FFF7F0B5044640
:100EB0004FF6FF700F4600251FE014F805C08CEABE
:100EC000000000260FE000F0010CBCF1000F05D07F
:100ED00040084AF2010C80EA0C0000E0400806F1EC
:100EE000010C0CF0FF06082EEDDBA7F1010C0CF055
:100EF000FF0705F1010C0CF0FF05002FDDDC4FEAC8
:100F0000102C82F800C01870F0BD00001CB52049FC
:100F1000204800F027FA002839D06B4601AA0721A3
:100F20001D48FFF7C3FF1C48C0799DF80410884294
:100F300017D11948007A9DF80010884211D117483E
:100F4000007838B91448801C01F0BEFA144880EDCE
:100F5000000A06E01048801C01F0B6FA104880ED47
:100F6000010A0E48007840B9FA2001F0E1FA0B4876
:100F70000078401C0949087005E0FA2001F0B4FA35
:100F80000020064908700249024800F0C5F91CBD5E
:100F900000880010286002409501002050000020C9
:100FA0005400002010B50549054800F0DBF918B1E0
:100FB0000449034800F0B0F910BD00000080201083
:100FC0004060024000F03D9010B56B496B4800F066
:100FD000C9F900287ED06A496A4801F0DDFA6848FC
:100FE000401D01F03AFB00EE100AB8EE400A6648D8
:100FF00080ED000A6248C01D01F02FFB00EE100AD0
:10100000B8EE400ADFED610AB4EEE00AF1EE10FA44
:101010000FD85B48C01D01F020FB00EE100AB8EEAF
:10102000400ADFED5B0A20EE200A574880ED010AF6
:1010300028E05348C01D01F010FB00EE100AB8EE86
:10104000400ADFED540AB4EEE00AF1EE10FA19DBC3
:10105000DFED510AB0EE600A4948C01D01F0FDFA0B
:1010600000EE900AF8EE600A9FED4A1A70EEC10A8F
:10107000B0EE600ADFED490A60EE200A4248C0ED9A
:10108000010A00BF3E48007B00EE100AB8EE400A9D
:101090003D4880ED040A3A48C07A00EE100AB8EEE6
:1010A000400AF2EE040A80EE201A374880ED031A57
:1010B0003348093001F0D1FA00EE100AB8EE400AC8
:1010C000DFED320AB4EEE00AF1EE10FA1AD82C483D
:1010D000093000E04EE001F0C0FA00EE100AF8EE30
:1010E000401A2948D0ED030AB0EE600A01F0D8FAA0
:1010F00021EE800ADFED250A80EE201A224880EDDD
:10110000021A33E01E48093001F0A7FA00EE100A77
:10111000B8EE400ADFED1F0AB4EEE00AF1EE10FA75
:1011200024DB9FED1D0AF0EE401A1548093001F04E
:1011300094FA00EE100AB8EE400ADFED160A30EE1F
:10114000600AF0EE401A1048D0ED030AB0EE600AD3
:1011500001F0A6FAB1EE400A20EE210ADFED0B0AFB
:1011600080EE201A084880ED021A00BF0C4903489F
:1011700000F0D2F810BD0000008800208860024016
:10118000690100205C0100207801002000C07F443C
:10119000AE47E13D0000804400000000AE47E1BDE5
:1011A00040FF00A070B52DED0A8B00249FED3A0A98
:1011B000B0EE408A39493A4800F0D4F8002867D0A8
:1011C000002004E0374931F810100C44401C64281A
:1011D000F8DB00EE104AB8EE400ADFED330A80EE8D
:1011E000201AB0EE418A314890ED000A28EE000A3C
:1011F0009FED2F1AC0EE010A2E4890ED000A80EEF6
:10120000801A11EE105A2846FFF77BF941EC1C0BAF
:101210009FED290B53EC102BFFF773F841EC1B0BE0
:101220009FED270B53EC102BFFF7E3F841EC1A0B63
:101230009FED250B53EC102BFFF769F841EC190BD0
:10124000FFF772F9224908602248007898B92248CD
:1012500090ED000A0846D0ED000A70EE600A1E48C4
:1012600090ED000A1D4890ED001A01EE600A1A4840
:1012700080ED000A08E0164890ED000A164880ED5F
:10128000000A0020134908701549054800F044F889
:10129000BDEC0A8B70BD0000000000002080001033
:1012A000106402409E0100200000C8426800002037
:1012B00000F07F45640000209A9999999999B93F67
:1012C0009A9999999999F93F0000000000002440EB
:1012D0005C00002070000020600000206C000020F6
:1012E0003DF0009010B50749074800F03BF838B1D1
:1012F0000649074800F0AAFE0649034800F00CF82A
:1013000010BD0000008800208864024036010020E3
:101310001001002040FF00A00246094B9A4201D272
:10132000084801E00648103801F000531BB1064B95
:101330000B40C36002E0044B0B4083607047000029
:1013400010640240006002407D0F7D0F21B10268F1
:1013500042F00102026003E0026822F00102026032
:101360007047000070B50246002000240025124E90
:10137000B24201D2114B01E00F4B103B104E0E4018
:1013800036B11E2606EAD124166806EA040502E0F4
:10139000566906F0800501F000560EB15C6800E069
:1013A0001C68084E344004EA010616B10DB1012054
:1013B00000E0002070BD00001064024000600240A8
:1013C0003C0F3C0F7D0F7D0F10B501F080034BB13A
:1013D00022B1436943F08003436103E0436923F092
:1013E0008003436180290BD02AB1036801F01E04F9
:1013F0002343036004E0036801F01E04A343036079
:1014000010BD000010B500220268134B1A40CC68D2
:101410000B6823434C6923438C692343CC692343E2
:101420000C6A23434C6A23438C6A23434C6B23434B
:101430008C6B23431A430260426922F00702D1E910
:101440000B3423431A4342610B6943604B6883604A
:101450008B68C36010BD00003F801CF07047000027
:1014600010B54FF4006000F051F848B123480078FF
:1014700040F00100214908704FF4006000F040F88E
:101480004FF4805000F042F848B11C48007840F01A
:1014900002001A4908704FF4805000F031F84FF400
:1014A000005000F033F848B11448007840F00400D0
:1014B000124908704FF4005000F022F84FF48040B9
:1014C00000F024F848B10D48007840F008000B49BE
:1014D00008704FF4804000F013F84FF4004000F023
:1014E00015F848B10548007840F01000034908702D
:1014F0004FF4004000F004F810BD00004C00002044
:101500000149086070470000143C0140014600207A
:10151000034A12680A400AB1012000E00020704727
:10152000143C0140002123498279002A3AD00A461E
:10153000126803689A430B461A600A1D1268036812
:101540009A430B1D1A60027911440A6803681A4312
:101550000A60184A0832126803689A43154B083328
:101560001A601A1D126803689A43124B0C331A60F2
:101570004279102A0ED11A1F126803681A430D4BC4
:1015800008331A601A1D126803681A43094B0C339A
:101590001A600DE00749427911440A6803681A434A
:1015A0000A6005E0027911440A6803689A430A60F8
:1015B00070470000003C0140014A10707047000075
:1015C000003C0240F0B50A4600210023002400BF81
:1015D0003DE0012505FA01F3156805EA03049C4284
:1015E00034D105684F000326BE40B5430560157928
:1015F0004E00B5400668354305601579012D02D0CF
:101600001579022D16D185684F000326BE40B543DB
:10161000856055794E00B5408668354385604568DC
:1016200001268E40B5434560456896798E40B6B236
:1016300035434560C5684F000326BE40B543C560CD
:10164000D5794E00B540C6683543C560491C1029A0
:10165000BFD3F0BDF0B5002300244D07ED0E02FA14
:1016600005F3CE1000F1200555F826504E07F70E71
:101670000F26BE40B543CF1000F1200646F8275094
:10168000CE1000F1200555F8265045EA0304CE108F
:1016900000F1200545F82640F0BD418370470183E5
:1016A000704700BFFEE700BFFEE7704770B500213E
:1016B00000230F22C4781CB3174C246804F4E064A0
:1016C000C4F5E064C4F30721C1F10404E3B20A41A4
:1016D00044789C40E1B28478144021430C07210EE9
:1016E0000E4C05786155047804F01F050124AC40C8
:1016F00005786D11AD0005F1E025C5F8004109E060
:10170000047804F01F050124AC40054D06787611DD
:1017100045F8264070BD00000CED00E000E400E05C
:1017200080E100E07047000029B1064A12680243D8
:10173000044B1A6004E0034A12688243014B1A60AA
:10174000704700003038024029B1064A126802434F
:10175000044B1A6004E0034A12688243014B1A608A
:10176000704700004038024029B1064A126802431F
:10177000044B1A6004E0034A12688243014B1A606A
:10178000704700002038024029B1064A126802431F
:10179000044B1A6004E0034A12688243014B1A604A
:1017A00070470000443802401448006840F00100CF
:1017B0001249086000201149083108600F4800688C
:1017C0000F4908400D4908600E48091D08600E4881
:1017D0000A49843108600B481038091D0860074821
:1017E000006820F4802005490860002003490C317E
:1017F000086002498C3108607047000000380240E0
:10180000FFFFF6EA1030002400300020F0B5002180
:1018100000220024022500260223324F3F6807F0F1
:101820000C0121B1042905D0082937D105E02E4F3C
:10183000076036E02D4F076033E02A4F3F1F3F68B7
:10184000C7F38056274F3F1F3F6807F03F036EB135
:10185000264FB7FBF3F7DFF88CC0ACF1040CDCF8D3
:1018600000C0CCF3881C07FB0CF40CE01E4FB7FB48
:10187000F3F7DFF870C0ACF1040CDCF800C0CCF377
:10188000881C07FB0CF4174F3F1F3F68C7F3014745
:101890007F1C7D00B4FBF5F7076002E0124F076084
:1018A00000BF00BF0F4F3F6807F0F0010909104F5C
:1018B0007A5C0768D74047600A4F3F6807F4E051F9
:1018C000890A0B4F7A5C4768D7408760054F3F68AD
:1018D00007F46041490B064F7A5C4768D740C76000
:1018E000F0BD0000083802400024F40000127A0025
:1018F0007100002010B501460022002300204A118B
:10190000012A02D10A4C236808E0022A03D1084CBC
:101910007034236802E0064C7434236801F01F021F
:10192000012494401C400CB1012000E0002010BDB7
:101930000038024001460020034A106820F0F00001
:101940000843106070470000083802400021024A36
:10195000117011460870704702380240014600209D
:10196000034A106820F4E0500843106070470000FC
:101970000838024001460020034A106820F4604005
:1019800040EAC1001060704708380240014908660B
:10199000704700000000474270B5049C41EA821580
:1019A0000126C6EB530645EA0645054345EA0465AC
:1019B000014E356070BD0000043802400146002031
:1019C000034A106820F003000843106070470000CD
:1019D0000838024038B5002000900024002500BFE0
:1019E0003120FFF787FF05460098401C00900098C3
:1019F000B0F5A04F01D0002DF2D03120FFF77AFFD3
:101A000008B1012400E00024204638BD70470000E2
:101A100030B500228B071C0F0F2303FA04F20B4B87
:101A20008C1053F824309343084C8D1044F8253023
:101A300023468C1053F824308C07240F00FA04F44A
:101A40002343024C8D1044F8253030BD0838014046
:101A500038B5FFF7A9FE0120FFF778FFFFF7BAFFBF
:101A60000446012C23D1072002234FF4A872082139
:101A70000090C804FFF790FF0120FFF787FF00BF29
:101A80003920FFF737FF0028FAD00520FFF794FD33
:101A90000020FFF74FFF4FF4A050FFF75FFF4FF418
:101AA0008050FFF767FF0220FFF788FF01E000BFCB
:101AB000FEE700F001F838BD70B5002000220223D7
:101AC00000240221274D2D6805F00C0020B10428C8
:101AD00006D0082834D107E0234D244E356033E08A
:101AE000234D224E35602FE01E4D2D1F2D68C5F36E
:101AF00080541C4D2D1F2D6805F03F0154B11C4D25
:101B0000B5FBF1F5174E361F3668C6F3881605FB90
:101B100006F209E0144DB5FBF1F5124E361F36689A
:101B2000C6F3881605FB06F20E4D2D1F2D68C5F372
:101B300001456D1C6B00B2FBF3F50C4E356003E004
:101B4000094D0A4E356000BF00BF064D2D68C5F334
:101B50000315084E705D054D2D68C540034E356078
:101B600070BD0000083802400024F400840000200A
:101B700000127A00542A00081448006840F47000EB
:101B8000124908601248006840F0010010490860DE
:101B900000200F49083108600D4800680D490840D1
:101BA0000B4908600C48091D0860081F006820F4F4
:101BB0008020091F0860002005490C3108604FF0A3
:101BC00000600249803908607047000088ED00E03D
:101BD00000380240FFFFF6FE1030002410B501214E
:101BE000054800F032F830B1012000F085FD0121F8
:101BF000014800F012F810BD0014004021B1028825
:101C000042F08002028004E002884FF67F731A409F
:101C100002807047CA4302827047CA4302827047FB
:101C200021B1028842F00102028004E002884FF6EE
:101C3000FE731A400280704702460020138A0B4050
:101C40000BB1012000E00020704730B502460020B3
:101C500000230024158A05EA0103958905EA010499
:101C600013B10CB1012000E0002030BD70B500249C
:101C700000220023058C4FF6FF6635400584028C58
:101C80008388848B4FF68F752C404FF6FC752C4063
:101C90000D882C434FF6FF552A408D894FF6FF766D
:101CA00006EA05252A434D8806EA05252A43154DEF
:101CB000A84202D0144DA8421DD14FF2FF752A4010
:101CC000CD894FF6FF7606EA05252A434FF6FF3504
:101CD0002A408D8806EA05252A434EF6FF752B40DB
:101CE0004DF6FF752B400D8A06EA05152B434D8AEC
:101CF00006EA05152B43838084838D68C5630284BF
:101D000070BD000000000140000401400A460021AF
:101D1000818B4FF6F7731940114381837047C1637C
:101D20007047000000220288184B98420ED0184BD2
:101D300098420BD0B0F1804F08D0164B984205D096
:101D4000154B984202D0154B984204D14FF68F7331
:101D50001A404B881A43124B984207D0114B9842B5
:101D600004D04FF6FF431A400B891A4302804B6898
:101D7000C3620B880385054B984202D0044B9842FE
:101D800001D18B7A038601238382704700000140D2
:101D9000000401400004004000080040000C004026
:101DA000001000400014004002460020002103E023
:101DB000535C0344D8B2491C0729F9DBC143C8B2BC
:101DC000411CC8B27047000000B58BB00121022051
:101DD000FFF7AAFC02208DF8280000208DF82A00C9
:101DE0004FF40070099001208DF82B0003208DF82E
:101DF000290009A94648FFF7E5FB01210220FFF76A
:101E000093FC02208DF8280000208DF82A004FF462
:101E10008070099001208DF82B0003208DF8290097
:101E200009A93B48FFF7CEFB092211463848FFF7C6
:101E300011FC092208213648FFF70CFC0121480655
:101E4000FFF782FC3348FEF7A3FD00208DF81E004B
:101E50008DF81F008DF8200001208DF82100002052
:101E60008DF8220001208DF8230000208DF81A0043
:101E70008DF81B000B208DF81C0007208DF81D002D
:101E80000220ADF8180006A92248FEF72AFE00201D
:101E90008DF8120001208DF8130000208DF8140039
:101EA0001D4800684FF6FF7101EA4010ADF80800C8
:101EB0001948006801EA4010ADF80A0016480068A9
:101EC00001EA4010ADF80C001348006801EA401028
:101ED000ADF80E000020ADF8100001208DF81500BF
:101EE00002A8FEF771FD012202210A48FEF7F0FD6B
:101EF00014208DF8040001208DF8070000208DF8D3
:101F000005008DF8060001A8FFF7D0FB0BB000BD5F
:101F100000040240006400400800002010B5412089
:101F20000C490870522048704D2088703220C870CB
:101F30005220087144204871592088710846FFF7E3
:101F400033FF0449C8710A4608210348006800F0BD
:101F500005F810BD44000020140000202DE9F043D6
:101F600085B080460C469146CDF800800020019057
:101F70008DF809008DF80800E0B28DF80A00002005
:101F800005E019F800200DF10B010A54401CA04295
:101F9000F7DB69460A48FEF7A6FE0546002705E07E
:101FA00029460748FEF732FF06467F1C012E03D064
:101FB0004FF6FF708742F3D105B0BDE8F083000013
:101FC0000064004010B501211020FFF7BDFB002088
:101FD000024908810248FFF7A5FE10BDF00000206D
:101FE0000010004070B50446144800688008144989
:101FF000B0FBF1F00121C1EB40001249088040F232
:10200000E73048601048FFF78DFE002513E00121FE
:102010000D48FFF7FFFD01210B48FFF701FE00BF50
:1020200001210948FFF708FE0028F9D000210648E1
:10203000FFF7F6FD6D1CA542E9D370BD84000020BA
:1020400040420F00F00000200010004010B5024692
:102050000023002004E0145C242C00D1C3B2401CF7
:102060002628F8DB00200CE01C18262C03DA1C18AC
:10207000145D0C5404E0C3F12604041B145D0C54DD
:10208000401C2628F0DB10BD10B57F2000F086FC38
:1020900010BD000000B585B001210820FFF744FB0A
:1020A00001208DF8100000208DF812004FF48050B0
:1020B000039000208DF8130003208DF8110003A970
:1020C000CD48FFF77FFA4FF48051CB48FFF7E5FA90
:1020D00001210820FFF728FB01208DF810000020C7
:1020E0008DF812004FF40050039000208DF813007B
:1020F00003208DF8110003A9BF48FFF763FA4FF4DE
:102100000051BD48FFF7C9FA01210820FFF70CFB79
:1021100001208DF8100000208DF812004FF480404F
:10212000039000208DF8130003208DF8110003A9FF
:10213000B148FFF747FA4FF48041AF48FFF7ADFAD7
:1021400001210820FFF7F0FA01208DF8100000208F
:102150008DF812004FF40040039000208DF813001A
:1021600003208DF8110003A9A348FFF72BFA4FF4C1
:102170000041A148FFF791FA01211020FFF7D4FA9E
:1021800001218803FFF700FB00208DF810008DF877
:1021900012004FF40060039002208DF8130003201A
:1021A0008DF8110003A99548FFF70CFA0B210420C4
:1021B000FFF72EFC4FF40060019001208DF80A001B
:1021C00000208DF8080008208DF8090001A8FFF70D
:1021D000A9F928208DF8000001208DF803000020C7
:1021E0008DF801008DF802006846FFF75FFA0121C3
:1021F0001020FFF799FA01218803FFF7C5FA0020A4
:102200008DF810008DF812004FF4805003900220DA
:102210008DF8130003208DF8110003A97748FFF70C
:10222000D1F90C210420FFF7F3FB4FF4805001900B
:1022300001208DF80A0000208DF8080008208DF894
:10224000090001A8FFF76EF928208DF80000012091
:102250008DF8030000208DF801008DF8020068461B
:10226000FFF724FA01211020FFF75EFA012188030D
:10227000FFF78AFA00208DF810008DF812004FF455
:102280000050039002208DF8130003208DF81100F8
:1022900003A95A48FFF796F90D210420FFF7B8FB70
:1022A0004FF40050019001208DF80A0000208DF8B5
:1022B000080008208DF8090001A8FFF733F928204D
:1022C0008DF8000001208DF8030000208DF801003A
:1022D0008DF802006846FFF7E9F901211020FFF7A9
:1022E00023FA01218803FFF74FFA00208DF8100030
:1022F0008DF812004FF48040039002208DF81300F7
:1023000003208DF8110003A93C48FFF75BF90E216B
:102310000420FFF77DFB4FF48040019001208DF8F1
:102320000A0000208DF8080008208DF8090001A897
:10233000FFF7F8F828208DF8000001208DF8030041
:1023400000208DF801008DF802006846FFF7AEF915
:1023500001211020FFF7E8F901218803FFF714FAA3
:1023600000208DF810008DF812004FF4004003900B
:1023700002208DF8130003208DF8110003A91F48D7
:10238000FFF720F90F210420FFF742FB4FF4004034
:10239000019001208DF80A0000208DF80800082027
:1023A0008DF8090001A8FFF7BDF828208DF800007E
:1023B00001208DF8030000208DF801008DF8020047
:1023C0006846FFF773F901210420FFF7ADF90120FA
:1023D0008DF8100000208DF812004FF4004003909B
:1023E00000208DF8130003208DF8110003A9044884
:1023F000FFF7E8F805B000BD000C024000100240F5
:102400000008024010B50446012C04D1C103054860
:10241000FFF745F904E04FF400410248FFF73DF9AA
:1024200010BD00000008024010B54FF48041024882
:10243000FFF733F910BD0000000C024010B54FF457
:1024400080410248FFF72BF910BD0000000C02404C
:1024500010B54FF400510248FFF71FF910BD0000FE
:10246000000C024010B54FF400510248FFF717F975
:1024700010BD0000000C024010B54FF400410248AE
:10248000FFF70BF910BD0000000C024010B54FF42F
:1024900000410248FFF703F910BD0000000C0240A4
:1024A00010B54FF480510248FFF7F7F810BD000057
:1024B000000C024010B54FF480510248FFF7EFF8CE
:1024C00010BD0000000C024008B5C1788DF8001066
:1024D00081788DF8011041788DF8021001788DF81F
:1024E00003109DED000A08BD70B505460E48057045
:1024F00049200D494870012088700B1DCA1C03211A
:10250000D01EFEF7D3FC002404E00749085D00F06C
:1025100033F8641C052CF8DB00BF8021034800F071
:102520001DFA0128F9D170BD8C010020004800403F
:1025300070B505460E48057049200D4948700420C5
:1025400088700B1DCA1C0321D01EFEF7AFFC0024AF
:1025500004E00749085D00F00FF8641C052CF8DB67
:1025600000BF8021034800F0F9F90128F9D170BDBE
:102570008C0100200048004010B5044600BF8021B7
:10258000044800F0EBF90128F9D12146014800F098
:10259000F2F910BD0048004010B50B46FF22C17A89
:1025A000FF2907D1017B012904D101780A2901D132
:1025B0000A222BE0017BFF2907D10178012904D1F0
:1025C00041780A2901D10B2220E00178FF2907D1A7
:1025D0004178012904D181780A2901D10C2215E022
:1025E000012110E00B290CDA445CFF2C09D14C1CB2
:1025F000045D012C05D18C1C045D0A2C01D10A4616
:1026000003E04C1CE1B20D29ECDB00BFFF2A11D026
:1026100000210DE054180D2C03DA5418045D5C54AD
:1026200004E0C2F10D040C1B045D5C544C1CE1B2CF
:102630000D29EFDB10BD10B502460B46002102202C
:1026400003E0145C0C44A1B2401C5C1E8442F8DC24
:10265000C8B2C04381B2C8B210BD08B501460878FF
:102660008DF8000048788DF80100BDF8000008BD25
:1026700070B505460E4600240CE000BF80210748D7
:1026800000F06CF90128F9D1295D044800F073F9D4
:10269000601CC4B2B442F0DB70BD000000440040D6
:1026A000F0EE400A9FED101AB0EE410AB2EE081AA1
:1026B000F4EEC10AF1EE10FA04D29FED0C1AB0EE5E
:1026C000410A0FE09FED0A1AF4EEC10AF1EE10FA8A
:1026D00004D2B0EE041AB0EE410A03E09FED051AF1
:1026E000B0EE410A70470000000000003333134091
:1026F000CDCC6C41666646401CB50446FF208DF883
:1027000000008DF801008DF8024004208DF80300D0
:1027100002208DF8040024208DF8050008208DF893
:10272000060008216846FFF786FF8DF8070008219C
:102730006846FFF79DFF1CBD00B59DB0012108460E
:10274000FEF7F2FF03208DF8700000208DF8720074
:1027500008201B9000208DF8730003208DF8710075
:102760001BA93B48FEF72EFF01210802FFF70CF8DA
:102770000020019002900390049001A8FDF7D4FF7F
:102780000020059001208DF818008DF81900002018
:1027900007900890099064208DF8280005A92D481D
:1027A000FDF7F0FF01218805FEF7BEFF00200C9029
:1027B00028484C300D9028480E9000200F9064203F
:1027C0001090002011904FF4806012904000139000
:1027D0008000149040111590400216900020179030
:1027E00001201890002019901A900CA91B48FEF7A0
:1027F00009FE012210211948FEF7E6FD38208DF868
:102800002C0000208DF82D0001208DF82E008DF871
:102810002F000BA8FEF74AFF01211048FEF796FD96
:102820000623012203210B48FDF7D6FF01210948A9
:10283000FDF79DFF01210748FDF78EFF01210548A7
:10284000FDF766FF0348FEF723F81DB000BD00004A
:1028500000000240002001409E0100201064024060
:1028600000B58BB001210846FEF75EFF04200990F9
:1028700002208DF8280003208DF8290000208DF813
:102880002A0001208DF82B0009A91D48FEF79AFEA9
:10289000012202211A48FEF7DDFE01210846FEF75B
:1028A00053FF0020ADF82000ADF81A0040F2E730E9
:1028B000079040F28F60ADF8180006A94FF08040F5
:1028C000FFF730FA6020ADF804000120ADF80600F3
:1028D00000200390ADF8100001A94FF08040FFF7F1
:1028E000C5F90821C806FFF711FA01218807FFF78B
:1028F00085F901218807FFF793F90BB000BD0000AF
:102900000000024010B52DED068BB0EE408ADFEDE1
:10291000100AB6EE000A00EE880A10EE101A0846F9
:10292000FDF7EFFD41EC1A0B9FED0A0B53EC102B5A
:10293000FDF75FFD41EC190BFDF7CAFD044621468A
:102940004FF08040FFF7EBF9BDEC068B10BD0000A7
:10295000610B363C7B14AE47E17A943F024600207F
:10296000B1F5007F00D100BF13880B400BB10120EF
:1029700000E000207047C1F308028280704700BF6A
:10298000FEE700000020014908607047082C004065
:1029900010B5FFF7F7FFFFF777FB10BD00F07F01E1
:1029A000014A116070470000002C004002E008C896
:1029B000121F08C1002AFAD170477047002001E0B9
:1029C00001C1121F002AFBD170470000FFF740F839
:1029D0001E48FEF71BFFFFF7F5FA4FF4FA60FFF70A
:1029E00001FBFFF757FB4FF4FA70FFF7FBFAFFF715
:1029F000EBF94FF4FA70FFF7F5FAFFF79DFE4FF48D
:102A0000FA70FFF7EFFAFFF72BFF4FF4FA70FFF7BA
:102A1000E9FA9FED0F0AFFF775FF15E0FFF74AFD92
:102A2000FFF70CFDFFF71EFDFFF730FDC820FFF795
:102A3000D9FAFFF735FDFFF7F7FCFFF709FDFFF7C0
:102A40001BFDC820FFF7CEFAE8E700008800002051
:102A500000003443000000000000000001020304F5
:102A60000607080900000000010203048C2A000880
:102A70000000002088000000AC290008142B00088A
:102A800088000020E0050000BC29000800000000CC
:102A900021010000220100002301000024010000A8
:102AA00025010000260100000000000000000000D9
:102AB0000000000000000000000000000000000016
:102AC0000000000000000000000000000000000006
:102AD00000000000000000000000000000000000F6
:102AE00000000000000000000000000000000000E6
:102AF0000000A04033335340CDCC4C3E01000000D9
:102B00000001020304010203040607080900000093
:042B1000007A030A3A
:040000050800018965
:00000001FF
