:020000040800F2
:10000000C006002029020008750B0008D509000869
:10001000710B0008E30200088113000800000000D3
:100020000000000000000000000000005510000863
:10003000FF07000800000000F10B000899100008FD
:10004000430200084302000843020008430200087C
:10005000430200084302000843020008430200086C
:100060004302000801080008430200084302000898
:10007000430200084302000843020008430200084C
:10008000430200084302000843020008430200083C
:10009000430200084302000843020008430200082C
:1000A000430200084302000843020008430200081C
:1000B000430200084302000843020008430200080C
:1000C00043020008430200084302000843020008FC
:1000D00043020008430200084302000843020008EC
:1000E00043020008430200084302000843020008DC
:1000F00043020008430200084302000843020008CC
:1001000043020008430200084302000843020008BB
:1001100043020008430200084302000843020008AB
:10012000430200084302000843020008430200089B
:10013000430200084302000843020008430200088B
:10014000430200084302000843020008430200087B
:10015000430200084302000843020008430200086B
:10016000430200084302000843020008430200085B
:100170004302000843020008430200080000000098
:10018000430200084302000800F002F800F03CF8C7
:100190000AA090E8000C82448344AAF10107DA45E2
:1001A00001D100F031F8AFF2090EBAE80F0013F0F8
:1001B000010F18BFFB1A43F001031847401200005B
:1001C00060120000103A24BF78C878C1FAD85207EC
:1001D00024BF30C830C144BF04680C6070470000C1
:1001E0000023002400250026103A28BF78C1FBD840
:1001F000520728BF30C148BF0B6070471FB501F0E0
:10020000EBF81FBD10B510BD00F031F81146FFF737
:10021000F5FF01F0D1F800F04FF803B4FFF7F2FF5B
:1002200003BC00F057F80000094880470948004720
:10023000FEE7FEE7FEE7FEE7FEE7FEE7FEE7FEE796
:10024000FEE7FEE704480549054A064B70470000F3
:10025000C911000889010008C0000020C006002064
:10026000C0020020C00200207047704770477546EA
:1002700000F02CF8AE4605006946534620F0070012
:10028000854618B020B5FFF7DDFFBDE820404FF0F0
:1002900000064FF000074FF000084FF0000B21F070
:1002A0000701AC46ACE8C009ACE8C009ACE8C0093D
:1002B000ACE8C0098D46704710B50446AFF3008026
:1002C0002046BDE81040FFF7A8BF00000048704777
:1002D0005C00002001491820ABBEFEE726000200AA
:1002E000704700BFFEE700002DE9F04198B00746D7
:1002F00088460121084600F07DFC0121880300F0BA
:1003000099FC00208DF848008DF84A0008201190D3
:1003100001208DF84B0003208DF8490011A9FA48FF
:1003200000F0E6FA0321002000F096FE08200F906E
:1003300001208DF8420000208DF840000C208DF83F
:1003400041000FA800F084FA09208DF83800012040
:100350008DF83B0000208DF8390003208DF83A001D
:100360000EA800F009FC0121084600F043FC202003
:10037000119002208DF8480003208DF849000020DC
:100380008DF84A008DF84B0011A9DF4800F0B0FA53
:100390000121084600F02EFC4020119002208DF82B
:1003A000480003208DF8490000208DF84A008DF8A0
:1003B0004B0011A9D44800F09BFA0121084600F037
:1003C00019FC8020119002208DF8480003208DF840
:1003D000490000208DF84A008DF84B0011A9CA4849
:1003E00000F086FA05221146C74800F0C9FA052236
:1003F0000621C54800F0C4FA05220721C24800F0D2
:10040000BFFA0121084600F0F5FB102011900120F1
:100410008DF8480003208DF8490000208DF84A002F
:1004200001208DF84B0011A9B74800F061FA1021A6
:10043000B54800F0C8FA0121080300F0FBFB0020DA
:10044000ADF84C004FF48270ADF84E000020ADF8CE
:100450005000ADF85200ADF854004FF44070ADF8C4
:1004600056001020ADF858000020ADF85A0013A92E
:10047000A64800F03BFD0121A44800F01DFD4FF40B
:100480007A7000F049FF0120A149087000208DF822
:100490001C008DF81D008DF81E008DF81F008DF8D2
:1004A00018008DF819008DF81A008DF81B008DF8D2
:1004B00034008DF835008DF836008DF837008DF852
:1004C000300008208DF8310000208DF832008DF8C2
:1004D00033008DF82C008DF82D008DF82E008DF84E
:1004E0002F008DF828008DF829008DF82A008DF84E
:1004F0002B008DF824008DF825008DF826008DF84E
:1005000027008DF8200008208DF8210000208DF8AC
:1005100022008DF8230000F07DFA18B9002018B0F1
:10052000BDE8F08100F0C0FA08B90020F7E707AA9B
:100530002321202000F0FEFA06AA2721242000F023
:10054000F9FA0DAA0321002000F0F4FA0CAA072101
:10055000042000F0EFFA0BAA0B21082000F0EAFAC1
:100560000AAA1321102000F0E5FA09AA1721142085
:1005700000F0E0FA08AA1B21182000F0DBFA0421A1
:10058000602000F0BDFA0121702000F0B9FAB8F146
:10059000010F03D0B8F1020F6FD158E0132F53D2DF
:1005A000DFE807F0520A0E12161A1E22262A2E32F1
:1005B000363A3E42464A4E003F24FF25872644E015
:1005C0001F24FF25872640E00F24FF2587263CE0D7
:1005D0000F24BA25072638E00F24F125852634E0BC
:1005E0000924BE25072630E00724FF2587262CE0B6
:1005F0000724FA25872628E00324FF25872624E000
:100600000324BE25072620E00324AD2507261CE091
:100610000324FA25872618E00324F025862614E013
:100620000124FA25872610E04124F12585260CE0D7
:100630000024F025862608E00024A025042604E0F6
:100640000024D025822600E000BF00BF46E0132F23
:1006500040D2DFE807F03F0A0E133F173F1B1F236E
:100660003F3F272B2F33373F3B001F24BF25072653
:1006700031E00F24BF2507262DE02EE00724BF25FB
:10068000072628E00724A425042624E00324BF2508
:10069000072620E00324B42506261CE00124BF25FC
:1006A000072618E00124B425062614E00124B1250C
:1006B000052610E00024B42506260CE00024B12510
:1006C000052608E000249025022604E00024802569
:1006D000002600E000BF00BF00E000BF00BF2146D1
:1006E0002A2000F00DFA2946292000F009FA3146A7
:1006F000282000F005FA432000F06EF900F0EAF936
:1007000040B900200BE7000000000240003001402B
:100710000400002002E001A800F009F80E2000F01B
:1007200091F900F00E000028F5D10120F7E670B530
:1007300086B00446002500F057F98DF804000198B2
:10074000C0F38110002857D00198C0F38110012810
:1007500000D100E000200199C1F38111032901D1EA
:10076000012100E00021084328B10D2202A99020B8
:1007700000F082F909E00198C0F38110022804D149
:100780000D2202A9942000F077F90198C0F3C1006E
:1007900002280CD120709DF809309DF808209DF8A2
:1007A0000B109DF80A0000F0EDFD606008E00120EC
:1007B00020709DF809109DF8080000F0F5FD6060BC
:1007C0009DF80C0020729DF80D0060729DF80E00DF
:1007D000A0729DF80F00E0729DF8100020739DF844
:1007E000110060739DF81200A0739DF81300E07370
:1007F0009DF8140020740125284606B070BD70478E
:1008000010B5082000F018F838B106480068401C00
:10081000044908600448FFF78AFF082000F006F842
:1008200010BD0000080000204800002001490860B9
:1008300070470000143C014001460020034A126842
:100840000A400AB1012000E000207047143C01403A
:10085000002123498279002A3AD00A4612680368A7
:100860009A430B461A600A1D126803689A430B1DCF
:100870001A60027911440A6803681A430A60184A28
:100880000832126803689A43154B08331A601A1D20
:10089000126803689A43124B0C331A604279102A8B
:1008A0000ED11A1F126803681A430D4B08331A60E1
:1008B0001A1D126803681A43094B0C331A600DE0C5
:1008C0000749427911440A6803681A430A6005E03F
:1008D000027911440A6803689A430A60704700006D
:1008E000003C0140014A107070470000003C02408B
:1008F000F0B50A4600210023002400BF3DE0012599
:1009000005FA01F3156805EA03049C4234D1056831
:100910004F000326BE40B543056015794E00B54033
:100920000668354305601579012D02D01579022D31
:1009300016D185684F000326BE40B54385605579C2
:100940004E00B540866835438560456801268E4077
:10095000B5434560456896798E40B6B235434560EB
:10096000C5684F000326BE40B543C560D5794E002B
:10097000B540C6683543C560491C1029BFD3F0BDDA
:10098000F0B5002300244D07ED0E02FA05F3CE105A
:1009900000F1200555F826504E07F70E0F26BE40F1
:1009A000B543CF1000F1200646F82750CE1000F1D5
:1009B000200555F8265045EA0304CE1000F1200525
:1009C00045F82640F0BD018370470AB1018300E07D
:1009D0004183704700BFFEE710B5044621462B2037
:1009E00000F08EF810BD000010B50022102108485C
:1009F000FFF7EBFFB02000F0E5FA00F095FA0446AF
:100A0000012210210248FFF7E0FF204610BD000040
:100A10000000024010B5012210210848FFF7D5FF61
:100A20000A2400BF0648007808B1012010BD601EEE
:100A3000C4B2002CF6DC0020F8E700000000024001
:100A40000400002070B50446002210210948FFF779
:100A5000BCFF032000F0B6FA204600F0B3FA00F025
:100A600063FA0546012210210248FFF7AEFF28462F
:100A700070BD00000000024070B506460C461546E9
:100A8000002210210748FFF7A0FF304600F09AFA35
:100A90002946204600F06AFA012210210148FFF79A
:100AA00094FF70BD0000024010B580210F2000F0BF
:100AB00027F80A2400BF0E20FFF7C4FF00F0E00073
:100AC000802801D1012010BD601EC4B2002CF2DCD0
:100AD0000020F8E710B500210F2000F011F80A24DB
:100AE00000BF0E20FFF7AEFF00F0E00008B90120C4
:100AF00010BD601EC4B2002CF3DC0020F8E700003B
:100B000070B505460C46002210210948FFF75DFF2D
:100B1000022000F057FA284600F054FA204600F070
:100B200051FA012210210248FFF74FFF70BD00006B
:100B30000000024070B504460D4616460022102102
:100B40000A48FFF742FF022000F03CFA204600F07E
:100B500039FA281B401CC1B2304600F053FA01227A
:100B600010210248FFF731FF70BD00000000024075
:100B700000BFFEE77047000070B5002100230F2280
:100B8000C4781CB3174C246804F4E064C4F5E06432
:100B9000C4F30721C1F10404E3B20A4144789C4044
:100BA000E1B28478144021430C07210E0E4C0578E5
:100BB0006155047804F01F050124AC4005786D11DF
:100BC000AD0005F1E025C5F8004109E0047804F026
:100BD0001F050124AC40054D0678761145F82640E6
:100BE00070BD00000CED00E000E400E080E100E0FA
:100BF0007047000029B1064A12680243044B1A608C
:100C000004E0034A12688243014B1A6070470000F7
:100C10003038024029B1064A12680243044B1A6078
:100C200004E0034A12688243014B1A6070470000D7
:100C30004038024029B1064A12680243044B1A6048
:100C400004E0034A12688243014B1A6070470000B7
:100C5000443802401448006840F00100124908601E
:100C600000201149083108600F4800680F4908400A
:100C70000D4908600E48091D08600E480A49843174
:100C800008600B481038091D08600748006820F408
:100C9000802005490860002003490C3108600249A2
:100CA0008C3108607047000000380240FFFFF6EA10
:100CB0001030002400300020F0B500210022002474
:100CC000022500260223324F3F6807F00C0121B1B4
:100CD000042905D0082937D105E02E4F076036E0FA
:100CE0002D4F076033E02A4F3F1F3F68C7F3805600
:100CF000274F3F1F3F6807F03F036EB1264FB7FBFA
:100D0000F3F7DFF88CC0ACF1040CDCF800C0CCF3D6
:100D1000881C07FB0CF40CE01E4FB7FBF3F7DFF861
:100D200070C0ACF1040CDCF800C0CCF3881C07FBED
:100D30000CF4174F3F1F3F68C7F301477F1C7D002E
:100D4000B4FBF5F7076002E0124F076000BF00BF79
:100D50000F4F3F6807F0F0010909104F7A5C0768F0
:100D6000D74047600A4F3F6807F4E051890A0B4FAC
:100D70007A5C4768D7408760054F3F6807F4604159
:100D8000490B064F7A5C4768D740C760F0BD00004A
:100D9000083802400024F40000127A0018000020F5
:100DA00010B501460022002300204A11012A02D179
:100DB0000A4C236808E0022A03D1084C70342368E7
:100DC00002E0064C7434236801F01F0201249440B1
:100DD0001C400CB1012000E0002010BD0038024092
:100DE00001460020034A106820F0F000084310601C
:100DF00070470000083802400021024A1170114675
:100E0000087070470238024001460020034A10680B
:100E100020F4E0500843106070470000083802409A
:100E200001460020034A106820F4604040EAC100F7
:100E3000106070470838024001490866704700009A
:100E40000000474270B5049C41EA82150126C6EBBA
:100E5000530645EA0645054345EA0465014E3560FB
:100E600070BD00000438024001460020034A1068AB
:100E700020F003000843106070470000083802406B
:100E800038B5002000900024002500BF3120FFF776
:100E900087FF05460098401C00900098B0F5A04FD1
:100EA00001D0002DF2D03120FFF77AFF08B10124E4
:100EB00000E00024204638BD21B1028842F0400203
:100EC000028004E002884FF6BF731A400280704728
:100ED0000246002013890B400BB1012000E00020E6
:100EE00070470146888970478181704710B500229C
:100EF000028802F441520B884C8823438C88234398
:100F0000CC8823430C8923434C8923438C89234376
:100F1000CC8923431A430280838B4FF2FF74234012
:100F200083830B8A038210BD70B5002529460E48C5
:100F3000FFF7DAFF00BF02210B48FFF7C9FF0028C7
:100F4000F9D001210848FFF7C3FF0028F3D0802122
:100F50000548FFF7BDFF0028EDD10348FFF7C1FFAB
:100F6000C4B2204670BD0000003001402DE9F041C0
:100F700005460E460024002700BF1CE039461048F5
:100F8000FFF7B2FF00BF02210D48FFF7A1FF0028C5
:100F9000F9D001210A48FFF79BFF0028F3D08021F8
:100FA0000748FFF795FF0028EDD10548FFF799FFA7
:100FB0002855601CC4B2B442E0DBBDE8F0810000FB
:100FC0000030014010B5044621460D48FFF78CFF64
:100FD00000BF02210A48FFF77BFF0028F9D001215A
:100FE0000748FFF775FF0028F3D080210448FFF77A
:100FF0006FFF0028EDD10248FFF773FF10BD00001E
:101000000030014070B505460E46002400BF1BE0CD
:10101000295D0F48FFF768FF00BF02210C48FFF76A
:1010200057FF0028F9D001210948FFF751FF002898
:10103000F3D080210648FFF74BFF0028EDD104488C
:10104000FFF74FFF601CC4B2B442E1DB70BD00008B
:10105000003001407047000030B500228B071C0FA4
:101060000F2303FA04F20B4B8C1053F824309343F4
:10107000084C8D1044F8253023468C1053F824304A
:101080008C07240F00FA04F42343024C8D1044F81B
:10109000253030BD0838014000B500F021F900BD11
:1010A00038B5FFF7D7FD0120FFF7A6FEFFF7E8FEF2
:1010B0000446012C23D1072002234FF4A8720821F3
:1010C0000090C804FFF7BEFE0120FFF7B5FE00BF89
:1010D0003920FFF765FE0028FAD00520FFF702FC53
:1010E0000020FFF77DFE4FF4A050FFF78DFE4FF478
:1010F0008050FFF795FE0220FFF7B6FE01E000BF2B
:10110000FEE700F001F838BD70B500200022022390
:1011100000240221274D2D6805F00C0020B1042881
:1011200006D0082834D107E0234D244E356033E043
:10113000234D224E35602FE01E4D2D1F2D68C5F327
:1011400080541C4D2D1F2D6805F03F0154B11C4DDE
:10115000B5FBF1F5174E361F3668C6F3881605FB4A
:1011600006F209E0144DB5FBF1F5124E361F366854
:10117000C6F3881605FB06F20E4D2D1F2D68C5F32C
:1011800001456D1C6B00B2FBF3F50C4E356003E0BE
:10119000094D0A4E356000BF00BF064D2D68C5F3EE
:1011A0000315084E705D054D2D68C540034E356032
:1011B00070BD0000083802400024F4002800002020
:1011C00000127A00E21300081448006840F470002E
:1011D000124908601248006840F001001049086098
:1011E00000200F49083108600D4800680D4908408B
:1011F0000B4908600C48091D0860081F006820F4AE
:101200008020091F0860002005490C3108604FF05C
:1012100000600249803908607047000088ED00E0F6
:1012200000380240FFFFF6FE10300024CA4302825D
:10123000704721B1028842F00102028004E0028876
:101240004FF6FE731A400280704702460020138A50
:101250000B400BB1012000E0002070470022028803
:10126000184B98420ED0184B98420BD0B0F1804FDB
:1012700008D0164B984205D0154B984202D0154B1A
:10128000984204D14FF68F731A404B881A43124B81
:10129000984207D0114B984204D04FF6FF431A40B2
:1012A0000B891A4302804B68C3620B880385054B88
:1012B000984202D0044B984201D18B7A03860123D5
:1012C0008382704700000140000401400004004098
:1012D00000080040000C00400010004000140040D6
:1012E0000448006820B103480068401E01490860B6
:1012F000704700000000002010B501211020FFF70A
:1013000089FC0020024908810248FFF7A7FF10BDB1
:101310003C0000200010004070B5044614480068EE
:1013200080081449B0FBF1F00121C1EB40001249E3
:10133000088040F2E73048601048FFF78FFF002533
:1013400013E001210D48FFF771FF01210B48FFF762
:1013500070FF00BF01210948FFF777FF0028F9D08F
:1013600000210648FFF765FF6D1CA542E9D370BD5B
:101370002800002040420F003C00002000100040E8
:1013800000BFFEE7F0B504460D460020002103F043
:1013900003065F11D1003944890031440902214418
:1013A000090229440846F0BD10B502460020D300CA
:1013B00003EB6113184610BDFFF772FE0548FFF7F7
:1013C0007BFCFFF799FF02211220FEF78DFF00BF83
:1013D000FEE700002C0000204FF04070E1EE100A04
:1013E000704700000000000000000102030406072F
:1013F0000809000000000102030400001C1400089A
:10140000000000202C000000C4010008481400085F
:101410002C00002094060000E001000800000000FD
:1014200000000000000000000000000000000000BC
:101430000000000000000000010203040102030498
:08144000060708090024F4006E
:040000050800018965
:00000001FF
