:020000040800F2
:1000000077140020890100085B09000853090008E3
:1000100057090008CB030008A31B000800000000DC
:10002000000000000000000000000000D50C0008E7
:10003000FF07000800000000E1090008C10D0008EA
:10004000A3010008A3010008A3010008A301000800
:10005000A3010008A3010008A3010008A3010008F0
:10006000A3010008A3010008A30100084904000837
:10007000A3010008A3010008A3010008A3010008D0
:10008000A3010008A3010008A3010008A3010008C0
:10009000A3010008A3010008A3010008A3010008B0
:1000A000A3010008A3010008A3010008A3010008A0
:1000B000A3010008A3010008CD0E0008A301000859
:1000C000A3010008A3010008A3010008A301000880
:1000D000A301000849190008A3010008A3010008B2
:1000E000A3010008A3010008A301000800F002F822
:1000F00000F03AF80AA090E8000C82448344AAF188
:100100000107DA4501D100F02FF8AFF2090EBAE885
:100110000F0013F0010F18BFFB1A43F0010318473B
:10012000CC290000EC290000103A24BF78C878C11F
:10013000FAD8520724BF30C830C144BF04680C60ED
:10014000704700000023002400250026103A28BF35
:1001500078C1FBD8520728BF30C148BF0B60704739
:100160001FB51FBD10B510BD00F031F81146FFF7E7
:10017000F7FF01F019FD00F04FF803B4FFF7F2FFAD
:1001800003BC00F057F800000948804709480047C1
:10019000FEE7FEE7FEE7FEE7FEE7FEE7FEE7FEE737
:1001A000FEE7FEE704480549054A064B7047000094
:1001B0006D0E0008ED000008780200207714002082
:1001C0007804002078040020704770477047754617
:1001D00000F02CF8AE4605006946534620F00700B3
:1001E000854618B020B5FFF7DDFFBDE820404FF091
:1001F00000064FF000074FF000084FF0000B21F011
:100200000701AC46ACE8C009ACE8C009ACE8C009DD
:10021000ACE8C0098D46704710B50446AFF30080C6
:100220002046BDE81040FFF7A8BF00000048704717
:100230001402002001491820ABBEFEE72600020090
:10024000704721B1826842F00102826003E0826857
:1002500022F001028260704721B1826842F480720C
:10026000826003E0826822F48072826070470146F7
:1002700000208A6802F004020AB1012000E0002098
:100280007047014600208A6802F008020AB1012086
:1002900000E000207047000030B502460020002337
:1002A00050680F4C20400D790C6844EA0524204327
:1002B000506090680B4C2040D1E902542C434D799A
:1002C00044EA450420439060D06A20F470000C7C1E
:1002D000641EE4B2234340EA0350D06230BD000004
:1002E000FFFEF0FFFDF7F1FFF0B504460D460020DC
:1002F0000021092D11DDE068A5F10A0606EB46078D
:10030000072606FA07F18843A5F10A0606EB46061A
:1003100003FA06F10843E0600CE0206905EB4507AD
:10032000072606FA07F1884305EB450603FA06F1AE
:1003300008432061072A0FDA606B561E06EB86071A
:100340001F2606FA07F18843561E06EB860605FAB5
:1003500006F10843606322E00D2A0FDA206BD61FF6
:1003600006EB86071F2606FA07F18843D61F06EB21
:10037000860605FA06F10843206310E0E06AA2F160
:100380000D0606EB86071F2606FA07F18843A2F141
:100390000D0606EB860605FA06F10843E062F0BD9D
:1003A000816841F008018160704721B1826842F4A0
:1003B000A002826003E0826822F4A002826070479B
:1003C000816841F004018160704700BFFEE70000D2
:1003D00010B5044600F042FB4FF4803000F000FC02
:1003E00000F05CFC1749087008460078012826D107
:1003F000102000F005FA022000F010FA002000F0B2
:10040000E3FB002000F01EFC4FF4806000F00EFCC7
:1004100021464FF4803000F027FC012000F01EFC44
:1004200000BF392000F0AAFB0028FAD0022000F01B
:1004300029FC00BF00F0C0FB0828FBD101E000BF91
:10044000FEE710BD000000202DE9F047022000F07B
:1004500099F900287ED05E48007800285AD15D497D
:1004600049885C4AD28811445A4A52891144594AEF
:10047000D2891144574A528A1144564AD28A1144A9
:10048000544A528B1144534AD28B1144514A528CD4
:100490001144504AD28C881802F05EF94E49086027
:1004A0004E494D48006802F095F804464C480168F2
:1004B000204602F021F84A4908604A480078401E68
:1004C000484908700846007800287CD143494448D0
:1004D000006802F07FF842490860434801684048DC
:1004E000006802F085F98146404902F073F804463D
:1004F00001F0D6FF07463E4A3E4B01F0B9FB0546E8
:1005000001F084FB3C49086001203149087001F08A
:100510004FF858E02F4909882E4A928811442D4AF5
:10052000128911442B4A928911442A4A128A114491
:10053000284A928A1144274A128B1144254A928BE9
:100540001144244A128C1144224A928C881802F0D9
:1005500003F900E03AE0294908601E4949881D4A2C
:10056000D28811441B4A528911441A4AD289114433
:10057000184A528A1144174AD28A1144154A528B9A
:100580001144144AD28B1144124A528C1144114A1C
:10059000D28C881802F0E0F80F4908600F4917481C
:1005A000006802F017F8154908600C490A4800680D
:1005B00002F010F808490860104800681049086007
:1005C000054800684860072000F01CF8BDE8F08787
:1005D000A40000209C010020980000200000204181
:1005E000A8000020A50000208400002000F07F4526
:1005F0007B14AE47E17A943FA000002094000020D5
:100600000402002000F0805111B10349086001E0AC
:1006100002494860704700000404024000000240A4
:1006200021B1026842F00102026004E002684FF664
:10063000FE731A400260704701684FF6FE72114067
:1006400001600021016041608160C1604B498842C6
:1006500008D14A490839496841F00F01474A083A28
:1006600051608AE045491431884208D1434908392C
:10067000496841F0F001414A083A51607DE03F4944
:100680002831884208D13D490839496841F47061F0
:100690003A4A083A516070E038493C31884208D102
:1006A00036490839496841F47041344A083A516082
:1006B00063E032495031884208D1304908394968ED
:1006C00041F470212D4A083A516056E02B496431BB
:1006D000884208D129490839496841F47001274AFC
:1006E000083A516049E025497831884208D12349C8
:1006F0000839496841F07061204A083A51603CE08D
:100700001F49884206D1011F096841F00F01021FED
:10071000116032E01A491431884208D11849091F82
:10072000096841F0F001164A121F116025E01449D2
:100730002831884208D11249091F096841F47061C3
:100740000F4A121F116018E00D493C31884208D150
:100750000B49091F096841F47041094A121F1160D1
:100760000BE007495031884207D10549091F096844
:1007700041F47021024A121F1160704708000240C4
:100780000804024001460020002201F0805313B10A
:10079000054B1A6801E0054B1A6802EA01030BB128
:1007A000012000E0002070470004024000000240E9
:1007B0001AB103680B43036002E003688B430360D4
:1007C000704710B50022026847F6F0739A430C6A2E
:1007D0008B6823430C6923434C6923438C6923436F
:1007E000CC6923434C6A23438C6A23431A43026037
:1007F000CB6843600B6883604B68C36010BD704773
:100800000549096821F01001034A11601146096881
:1008100001431160704700000020024001460020A3
:10082000034A106800F03800084310607047000069
:10083000002002402DE9F04102460025002600205C
:1008400000230024002791F803C00CF00F0591F855
:1008500003C00CF0100CBCF1000F03D091F802C0E3
:100860004CEA050591F800C0BCF1000F31D01468C6
:1008700000202BE04FF0010C0CFA00F3B1F800C09F
:100880000CEA03069E4220D183004FF00F0C0CFAB5
:1008900003F7BC4305FA03FC4CEA040491F803C0D7
:1008A000BCF1280F06D14FF0010C0CFA00FCC2F885
:1008B00014C00AE091F803C0BCF1480F05D14FF015
:1008C000010C0CFA00FCC2F810C0401C0828D1D35F
:1008D0001460B1F800C0BCF1FF0F34DD5468002093
:1008E0002EE000F1080C4FF0010808FA0CF3B1F803
:1008F00000C00CEA03069E4221D183004FF00F0C8A
:100900000CFA03F7BC4305FA03FC4CEA040491F823
:1009100003C0BCF1280F05D100F1080C08FA0CF84F
:10092000C2F8148091F803C0BCF1480F07D100F160
:10093000080C4FF0010808FA0CF8C2F81080401CAF
:100940000828CED35460BDE8F08141617047016151
:10095000704700BFFEE700BFFEE7704770B500219B
:1009600000230F22C47804B3154C246804F4E06417
:10097000C4F5E064210AC1F10403CA40447804FAD2
:1009800003F184781440214309010E4C0678A155E7
:10099000047804F01F050124AC4005786D11AD000A
:1009A00005F1E025C5F8004109E0047804F01F05D1
:1009B0000124AC40044D0678761145F8264070BD00
:1009C0000CED00E000E400E080E100E002490143BA
:1009D000024A1160704700000000FA050CED00E0CB
:1009E0007047000001460020034A506820F4404050
:1009F00008435060704700000010024029B1064AC9
:100A000052690243044B5A6104E0034A526982432B
:100A1000014B5A61704700000010024029B1064A9C
:100A2000D2690243044BDA6104E0034AD26982438B
:100A3000014BDA61704700000010024029B1064AFC
:100A400092690243044B9A6104E0034A926982432B
:100A5000014B9A6170470000001002400F48006887
:100A600040F001000D490860084640680C49084004
:100A70000A494860084600680A4908400749086072
:100A80000846006820F4802008600846406820F48A
:100A9000FE0048604FF41F0088607047001002405D
:100AA0000000FFF8FFFFF6FE30B500210022002411
:100AB00000232D4D6D6805F00C0121B1042905D0EE
:100AC000082923D105E0294D056022E0274D056066
:100AD0001FE0254D6D6805F47012234D6D6805F417
:100AE0008034022505EB92421CB9214D5543056027
:100AF0000BE01D4D6D6805F400351DB11C4D5543CF
:100B0000056002E0194D5543056002E0174D056090
:100B100000BF00BF144D6D6805F0F0010909154DC7
:100B20006B5C0568DD4045600F4D6D6805F4E06164
:100B3000090A104D6B5C4568DD4085600A4D6D68A3
:100B400005F46051C90A0B4D6B5C4568DD40C5601A
:100B5000054D6D6805F44041890B074D6B5CC56818
:100B6000B5FBF3F5056130BD0010024000127A00BC
:100B700000093D00AC000020BC00002010B501467B
:100B80000022002300204A11012A02D1094C2368C7
:100B900006E0022A02D1074C236A01E0054C636A91
:100BA00001F01F02012494401C400CB1012000E020
:100BB000002010BD001002400248406800F00C0008
:100BC000704700000010024001460020034A5068B0
:100BD00020F0F00008435060704700000010024011
:100BE0001149096821F480310F4A116011460968E2
:100BF00021F480211160B0F5803F03D0B0F5802F43
:100C00000ED106E00849096841F48031064A1160B6
:100C100007E00549096841F4A021034A116000E09A
:100C200000BF00BF704700000010024001460020D6
:100C3000034A506820F4E0600843506070470000A9
:100C40000010024001460020034A506820F4605022
:100C500040EAC10050607047001002400149086638
:100C6000704700000000424202460020044B5868D2
:100C700020F47C1042EA01031843014B586070478E
:100C80000010024001460020034A506820F0030093
:100C900008435060704700000010024038B5002043
:100CA00000900024002500BF3120FFF767FF0546B4
:100CB0000098401C00900098B0F5A06F01D0002D66
:100CC000F2D03120FFF75AFF08B1012400E00024E0
:100CD000204638BD704710B500F002F810BD000086
:100CE0000CB50020019000903348006840F480303B
:100CF0003149086000BF3048006800F400300090BF
:100D00000198401C0190009818B90198B0F5A06FA7
:100D1000F1D12948006800F4003010B101200090A2
:100D200001E0002000900098012843D1234800688A
:100D300040F01000214908600846006820F00300D8
:100D400008600846006840F0020008601A484068E1
:100D5000194948600846406848600846406840F4C1
:100D6000806048600846406820F47C10486008466F
:100D7000406840F4E81048600846006840F0807021
:100D8000086000BF0C48006800F000700028F9D02F
:100D90000948406820F00300074948600846406859
:100DA00040F00200486000BF0348406800F00C00BB
:100DB0000828F9D10CBD00000010024000200240BC
:100DC00010B500F0EBF910BD10B500210020002295
:100DD000214B5B6803F00C0121B1042906D00829DE
:100DE00028D107E01D4B1E4C236027E01B4B1C4CF9
:100DF000236023E0184B5B6803F47010164B5B68AC
:100E000003F48032022303EB904022B9154B434395
:100E1000134C23600DE0104B5B6803F4003323B1E7
:100E2000104B43430E4C236003E00C4B43430C4CEC
:100E3000236003E0094B0A4C236000BF00BF064B50
:100E40005B68C3F30313084CE15C054B1B68CB40A4
:100E5000034C236010BD00000010024000127A0015
:100E6000C000002000093D00C400002010B5134858
:100E7000006840F0010011490860084640681049C8
:100E800008400E494860084600680E4908400B4972
:100E900008600846006820F4802008600846406822
:100EA00020F4FE0048604FF41F008860FFF713FF36
:100EB0004FF000600449086010BD000000100240BF
:100EC0000000FFF8FFFFF6FE08ED00E02DE9F04F0F
:100ED00087B001215F4800F0F4F800287ED05E481A
:100EE0005E4908605E4801685E48006801F080FC69
:100EF000019001F0D5FA824600225B4B00F060FFC2
:100F0000804689465948006801F0CAFA42464B4675
:100F1000CDE9020101F0DAF906460022544B01F056
:100F2000D7F80022534BCDE9040100F049FF0446F5
:100F300001F09EF85049086050480078E0B9084632
:100F4000006801F009FC06464D480168304601F092
:100F50004CFD05464B480168284601F049FC044613
:100F600047480168204601F040FD454908600846B1
:100F700000684549086108E03F48006801F0ECFB63
:100F80003F49086000203D490870354801683548F0
:100F9000006801F02DFC804601F082FA064600222E
:100FA000314B00F00DFF044600F030FE3749086079
:100FB0002B4801683648006801F01AFC824601F0AF
:100FC0006FFA80460022284B00F0FAFE06464FF0EA
:100FD0000042304B00F0F4FE044600E036E000F042
:100FE00015FE2949486108691C49096801F000FC9F
:100FF0000646294901F0EEFA0446284901F0EAFACA
:10100000054621488168284601F076FA1E49886025
:101010000A469168106801F0F3FC1B4948600A46D3
:101020009168106801F0ECFC05461D4901F0E0FBF9
:10103000044615480168204601F0CCFA1249C86000
:1010400000F0F4F90121034800F02CF807B0BDE8E6
:10105000F08F0000000800400000A0448000002045
:10106000840000209800002000FEAF40A000002077
:1010700080842E4100005940740000207000002040
:10108000780000207C000020EC010020900000206F
:10109000940000204570BC3F002474490000614565
:1010A0000000C842CA430282704721B1028842F060
:1010B0000102028004E002884FF6FE731A400280AB
:1010C000704730B50246002000230024158A05EA47
:1010D0000103958905EA010413B10CB1012000E078
:1010E000002030BD1AB183890B43838102E08389DC
:1010F0008B43838170470000002202881D4B984279
:101100000ED01D4B98420BD0B0F1804F08D01B4B36
:10111000984205D01A4B984202D01A4B984204D1FB
:101120004FF68F731A404B881A43174B984207D0DB
:10113000164B984204D04FF6FF431A40CB881A430F
:1011400002808B8883850B8803850A4B98420BD0DD
:10115000094B984208D00E4B984205D00D4B98424F
:1011600002D00D4B984201D10B7A03860123838272
:1011700070470000002C0140003401400004004092
:1011800000080040000C0040001000400014004027
:10119000004001400044014000480140044800680C
:1011A00020B103480068401E0149086070470000F4
:1011B0001400002000B595B00020954988600121F9
:1011C0000846FFF73BFC01210820FFF737FC102001
:1011D0008DF853000120ADF8500003208DF8520027
:1011E00014A98C48FFF726FB01210420FFF726FCF9
:1011F00010208DF853008020ADF8500003208DF8AA
:10120000520014A98448FFF715FB01210420FFF7C1
:1012100015FC10208DF853004020ADF8500003203D
:101220008DF8520014A97C48FFF704FB012104202B
:10123000FFF704FC10208DF853002020ADF850007B
:1012400003208DF8520014A97348FFF7F3FA012127
:101250000820FFF7F3FB00208DF853000220ADF8C3
:10126000500003208DF8520014A96A48FFF7E2FAF3
:1012700001210820FFF7E2FB00208DF85300082031
:10128000ADF8500003208DF8520014A96248FFF712
:10129000D1FA01210420FFF7C1FB0020ADF80600C0
:1012A000ADF802004720ADF8040040F2E730ADF899
:1012B000000069465948FFF71FFF012211465748B1
:1012C000FFF710FF4FF4A060FFF780FB1E208DF8A2
:1012D000380000208DF8390002208DF83A000120F6
:1012E0008DF83B000EA8FFF739FB01210846FFF7F8
:1012F00085FB4B48FFF7A0F94A4803904A48049001
:10130000002005901420069000200790802008906F
:101310004000099080000A9020200B9000020C9061
:1013200000200D9003A93E48FFF74BFA012202214D
:101330003B48FFF73DFA4FF4A060FFF747FB0B2057
:101340008DF8380001208DF83B0000208DF8390021
:1013500001208DF83A000EA8FFF700FB012130486C
:10136000FFF75EF94FF48040FFF73CFB0121480294
:10137000FFF764FB00200F9001208DF840008DF8EE
:1013800041004FF4602011900020129002208DF84F
:101390004C000FA923484C38FEF77EFF072301229B
:1013A000032120484C38FEF79FFF07230222092122
:1013B0001C484C38FEF798FF01211A484C38FEF7BC
:1013C00040FF012117484C38FEF746FF15484C38BE
:1013D000FEF7E6FF00BF13484C38FEF752FF002827
:1013E000F9D110484C38FEF7EBFF00BF0D484C38E0
:1013F000FEF73DFF0028F9D101210A484C38FEF7DD
:10140000D4FF00210548FFF750FE15B000BD0000D5
:10141000EC010020000C01400008014000080040E1
:10142000080002404C2401409C01002010B54848AF
:1014300000784849087046480078012873D1464929
:10144000C868464901F0A0F916D84349C86844491C
:1014500001F09AFA10D801214248FFF778FA80216A
:101460004148FFF774FA40213F48FFF770FA202106
:101470003D48FFF76CFA6AE03749C868384901F01F
:1014800083F916D23449C868384901F07DFA10D87A
:1014900001213448FFF75BFA80213348FFF757FA00
:1014A00040213148FFF753FA20212F48FFF74DFA2A
:1014B0004DE02949C8682D4901F066F916D2264940
:1014C000C8682B4901F060FA10D801212548FFF7C0
:1014D0003EFA80212448FFF73AFA40212248FFF7DC
:1014E00034FA20212048FFF730FA30E01A49C86862
:1014F0001F4901F049F917D21749C8681D4901F081
:1015000043FA11D801211748FFF721FA8021164824
:10151000FFF71BFA40211448FFF717FA2021124861
:10152000FFF713FA13E00FE00B49C868114901F007
:101530002BF90CD20849C868002101F025FA06D819
:10154000012000F043F802E0E12000F03FF810BD78
:101550009C0000209E000020EC0100200000C842FA
:1015600000009642000C0140000801400000484283
:101570000000C8410000204109494969416108490A
:10158000496841600649096901610549C968C16046
:101590000349096801600249896881607047000059
:1015A000EC0100200149086070470000EC010020B8
:1015B00010B50448FFF7F6FF01210348FFF775FD5A
:1015C00010BD000000401C470008004010B5044654
:1015D0001D48007880F0FF001B490870E12C24D1E1
:1015E0000846007880B101211848FFF7B0F9802142
:1015F0001748FFF7ACF940211548FFF7A8F920215B
:101600001348FFF7A4F91EE001211048FFF79DF9E8
:1016100080210F48FFF799F940210D48FFF795F910
:1016200020210B48FFF791F90DE0012C0BD1064862
:10163000007820B101210548FFF789F903E0012175
:101640000248FFF782F910BD9D000020000C014008
:101650000008014002460020002103E0535C0344DF
:10166000D8B2491C2029F9DBC143C8B2411CC8B219
:101670007047000000B587B001210846FFF7DEF98A
:1016800001210420FFF7DAF918208DF81B004FF430
:101690000070ADF8180003208DF81A0006A925483F
:1016A000FFF7C8F801210420FFF7C8F904208DF8DE
:1016B0001B000002ADF8180003208DF81A0006A9DF
:1016C0001C48FFF7B7F801218803FFF7B7F94FF47B
:1016D000E13002900020ADF814000C20ADF81200AB
:1016E0000020ADF81000ADF80E00ADF80C0002A916
:1016F000114800F0E1F94FF4A060FFF767F92520E9
:101700008DF8040000208DF8050003208DF80600F8
:1017100001208DF8070001A8FFF720F9012240F20F
:101720002551054800F0A2F90121034800F05BF9BA
:1017300007B000BD000801400038014008B5009026
:101740009DF800200A709DF801204A709DF8022043
:101750008A709DF80320CA7008BD00000148007817
:10176000704700006C0000200178242935D14178B1
:10177000412932D1817855292FD1C17856292CD1D0
:101780000179322929D14179302926D1817930292D
:1017900023D1C179302920D1017A53290ED1417A40
:1017A00054290BD1817A412908D1C17A522905D116
:1017B000017B542902D10121084A1170017A532971
:1017C0000BD1417A542908D1817A4F2905D1C17AA8
:1017D000502902D10021014A117070476C0000208D
:1017E00070B505460C4623492068FFF7A7FF22493C
:1017F0006068FFF7A3FF2149A068FFF79FFF20491A
:10180000E068FFF79BFF1F492069FFF797FF1E491C
:101810006069FFF793FF00201FE016490A5C1B4B2D
:1018200000F108015A5414490A5C00F10C015A54A1
:1018300012490A5C00F110015A5411490A5C00F186
:1018400014015A540F490A5C00F118015A540E4908
:101850000A5C00F11C015A54401C0428DDDB0B48D3
:10186000FFF7F8FE094981F82000084600F010F85B
:1018700070BD00004100002045000020490000200C
:101880004D00002051000020550000201D000020C8
:1018900070B50546002410E000BF8021084800F024
:1018A000AEF80128F9D1295D054800F076F9054820
:1018B0000068401C03490860641C242CECDB70BDEC
:1018C000003801406800002010B501210220FFF718
:1018D000A5F800200249C8800248FFF70DFC10BDA2
:1018E000000100200004004010B504460121022040
:1018F000FFF794F841F683401249088004EB840016
:101900004000401E091D088000200E49091F088064
:1019100001200C49143908800020091F088001208B
:1019200008492839088000BF064818380088002870
:10193000FAD0002003492839088000210220FFF74F
:101940006DF810BD2804004010B540F225511B4829
:1019500000F062F808B3194800F01AF91849194A5A
:1019600012788854084617490978405C0A2815D12E
:1019700014480078401E1249085C0D280ED1002042
:10198000104908700E48FFF7EFFE002003E0002129
:101990000B4A1154401C0F28F9DB08E00848007876
:1019A000242804D107480078401C0649087040F2FA
:1019B0002551024800F008F810BD00000038014031
:1019C0000A0100201C00002010B50022002340F670
:1019D0006A14A14200D100BF0A1201249440A3B2AC
:1019E000DC43048010BD21B1828942F4005282811F
:1019F00004E082894DF6FF731A40828170470246E7
:101A00000020B1F5007F00D100BF13880B400BB15F
:101A1000012000E00020704770B50246002400233A
:101A20000025002040F66A16B14200D100BFC1F384
:101A3000421501F01F03012606FA03F3012D02D11E
:101A40009689334006E0022D02D1168A334001E028
:101A5000968A33400C12012606FA04F416883440A4
:101A600013B10CB1012000E0002070BDF0B50346B9
:101A7000002400260025002040F66A17B94200D154
:101A800000BF1846C1F3421401F01F06012707FAF0
:101A900006F5012C01D10C3004E0022C01D11030EC
:101AA00000E014301AB107682F43076002E00768AE
:101AB000AF430760F0BD00002DE9F04786B0054652
:101AC0000E460024A24600BFA1460027B08900B1FF
:101AD00000BF2F462C8A4CF6FF700440F088044368
:101AE0002C82AC894EF6F3100440B088318908434B
:101AF000718908430443AC81AC8A4FF6FF4004402F
:101B0000B0890443AC8201A8FEF7CEFF1F4887428C
:101B100002D1DDF810A001E0DDF80CA0A88900F4E6
:101B2000004040B10AEBCA0000EB0A1031684900DE
:101B3000B0FBF1F807E00AEBCA0000EB0A103168CD
:101B40008900B0FBF1F86420B8FBF0F00401200933
:101B5000642101FB1089A88900F4004040B13220C3
:101B600000EBC900B0FBF1F000F00700044308E00F
:101B7000322000EB09106421B0FBF1F000F00F00FF
:101B800004432C8106B0BDE8F08700000038014016
:101B900001468888C0F308007047C1F308028280BC
:101BA000704700BFFEE700004FF4E010FEF710FCA6
:101BB0001248FEF779FF1148006811490860FFF7E5
:101BC00003F9FFF781FEFFF7F5FA6420FFF78CFEBB
:101BD000FFF750FD6420FFF787FE0DE0FFF7BEFD25
:101BE00050B10848FFF7C8FC06490748FFF7F8FD61
:101BF0004FF4FA70FFF778FEF0E70000D400002001
:101C000018000020E80000200C00002021F0004215
:101C1000A2F16052B2F5801F01F0004328BFD2F15B
:101C20007F6C0BD95FEA001C43EAC20242EB5070A2
:101C300018BF704728BF20F001007047B2F5801F21
:101C4000BCBF184670474FEA410C1CF5001F02D27A
:101C5000084600F094BE70B500F0E4FA0000008978
:101C6000FFF7F6BF4FF00040A0F58000704700007E
:101C700010B591EA030F48BF83F0004300F12E83B3
:101C8000841A71EB030C05D2121943EB0C03001BF1
:101C900061EB0C01DFF824E14FEA1154A4EB135C73
:101CA0001EEA430F18BF9EEA445F73D023EA0E0377
:101CB000DCF1200E21EA045143F4801332D322FADE
:101CC0000CFE10EB0E0023FA0CFE41EB0E01CCF1E2
:101CD000200E03FA0EFE10EB0E0051F10001B1F5DB
:101CE000801FCCF1200E32D201EB045112FA0EF219
:101CF000BDE8104058BF7047401C38BF5FEA420241
:101D000018BF7047002814BF20F0010041F1000106
:101D10004FEA410313F5001F38BF7047A1F1C041DE
:101D200000F0CEBA012A43EB0302ACF1200CDCF147
:101D30001F0E32BF4FF0000E23FA0CF310EB03001E
:101D400041EB0451B4EB115FD0D0A1EB045101F58C
:101D5000801149085FEA300001EB04510ED350F1C5
:101D6000000038BF12FA0EFE08D1BDE81040C9E7E6
:101D7000401C38BF5FEA4202CAD1C3E7BDE8104049
:101D80004FEA410313F5001F38BF7047A1F1C0416E
:101D900000F096BA9EEA445F08D011EA5E0FBDE8F3
:101DA000104004BF01F0004100207047BDE8104022
:101DB00070B500F037FA00BF64FBBE3E0000E0FFE4
:101DC0002DE9C04130B4DFF8A0C23CEA111418BFBD
:101DD0003CEA131400F0EC8081EA03051CEA1114BC
:101DE00044EAD57418BF1CEA131500F0C780A4EBB1
:101DF00005044FF0004545EAC12145EAC32341EA05
:101E0000505143EA525304F17F74994204F500346F
:101E10004FEAC0204FEAC22208BF904200F09C80E7
:101E20004FEA13650FF24016765D4FEA134506FB45
:101E300005F7C7F1807706FB07F74FEAD737A7FB0F
:101E400003687642C8F58038A7FB06CE38BFA8F1F4
:101E5000010807FB08E64FF0000EA6FB028CE6FB2C
:101E600003CEDCF1000CCEF1004E38BFAEF1010E16
:101E7000A6FB0C584FF000074FF00005E6FB0E875D
:101E8000A1FB08C6A0FB07CE16EB0E0645F1000528
:101E9000E1FB076515F1E04E7EBFA4F580345FEAF3
:101EA00046066D4116F1800745F100054FEA1727F8
:101EB0004FEA066647EA0567A6F1DE46B6F1805F9F
:101EC0004FEA15251FD9384624F0010C05EBC471E3
:101ED000BCF1FE6F01EB0C1102D8F0BCBDE8008133
:101EE00024425CBF01F5801E9EEAC47F02D4F0BC90
:101EF000BDE80081244238D4F0BCA1F1C041BDE866
:101F0000004100F0DDB94FEAD22242EA43524FEAE3
:101F1000D323A7FB02864FEAD02040EA415007FBBB
:101F200003661EEA0E0F4FEAD12105FB026658BF79
:101F3000A6EB0056B6EB00564FEA520E4EEAC37EB1
:101F400018EB0E0E56EB530EBDD518EB02085E4192
:101F50007F1C55F10005B6E74FF480154FF00007E0
:101F60004FF000064FF00008ADE7F0BC4FF0000066
:101F700001F1C04101F00041BDE8008111EA0C1FF0
:101F80000CEA131500D00CE013EA0C1F00F02580BA
:101F90004FF00000F0BC81EA030101F00041BDE810
:101FA0000081F0BCBDE8004181EA030100F088B97E
:101FB000F0BCBDE8004170B500F034F9097EFC3E8C
:101FC00000F007B881EA03014FF0000001F0004182
:101FD000704781EA030100F073B9F0BCBDE800412D
:101FE0004FF0000021497047FFFDFBF9F7F5F4F2CF
:101FF000F0EEEDEBE9E8E6E4E3E1E0DEDDDBDAD8A4
:10200000D7D5D4D3D1D0CFCDCCCBCAC8C7C6C5C401
:10201000C2C1C0BFBEBDBCBBBAB9B8B7B6B5B4B318
:10202000B2B1B0AFAEADACABAAA9A8A8A7A6A5A403
:10203000A3A3A2A1A09F9F9E9D9C9C9B9A999998C7
:102040009797969595949393929191908F8F8E8E6A
:102050008D8C8C8B8B8A89898888878786858584F7
:1020600084838382828181800000FF070000F87FE3
:102070004FEA41034FEA5353A3F58063D3F11E03A4
:10208000C8BFD3F1210C0CDD4FF0004242EAC1225F
:1020900042EA505232FA03FC8CEAE17CACEBE1708C
:1020A0007047102BC4BF0020704703F5787CBCF14B
:1020B000FF3F04D06FF0004282EA2100704770B504
:1020C00000F0B0F84992248000207047F2E7000049
:1020D000DFF848C170B51CEA111E1EBF1CEA1315BB
:1020E0009EEA0C0F95EA0C0F00F06F8081EA030462
:1020F00023EA4C134EEAD47E21EA4C1141F48011BC
:1021000043F48013AE44A1FB024CA0FB0365AEF187
:102110007F7E361955EB0C05A1FB034C4CF10003F7
:10212000A0FB021C16EB0C06654153F100030942AB
:1021300018BF46F0010613F4007F0BD14FEA0331BC
:102140004FEA0530340341EA155140EA16506FF06A
:1021500003020AE04FEAC3214FEAC520F40241EA34
:10216000555140EA56506FF0020202EB2E4201EB4D
:10217000025585EACE710AD05FEA440C18BF24F0FC
:10218000004450F1000041F1000120EAD47040F217
:10219000FE7C624500D270BDA84214BF4FF080445F
:1021A0004FF04044002E08BF0024BEF1806FA8BF4E
:1021B000A1F1C041BDE8704080F282804FF0000084
:1021C00001F1C04101F0004170479EEA0C0F0CEA9A
:1021D000131518BF95EA0C0F06D04FF0000081EAE6
:1021E000030E0EF0004170BD00F01CF88900013EA6
:1021F00000F007B800F009B84FEA430C5FEA5C5CF6
:1022000008D081EA030100F05BB84FEA410C5FEAB5
:102210005C5CF6D14FF00000014970470000FF07F9
:102220000000F87F0EF1020E2EF0030E5EF8046B34
:10223000364205D4012A43EB030515F5001F12D8D9
:10224000012841EB010C1CF5001F0CD80ED14FEA00
:10225000D17C15F5001F0CEB4C0C0CF1020C08BFE7
:102260004CEBD37C04E04FF0080C01E04FEAD37C48
:102270000CEB4C0526FA05F606F00706B6F1040C41
:1022800006D20EEB860CBDE870404CF0010C6047A6
:10229000DFE80CF0090B02024FF000414FF00000A4
:1022A000A1F5002170BD19461046012851EB01042B
:1022B00018BFD4F5001484BF002001F0004170BDA8
:1022C0000808A0F500114FEA3101704710B591EAF6
:1022D000030F48BF83F000433FF5D2AC841A71EB83
:1022E000030C07D212198CF0004C43EB0C03001BBB
:1022F00061EB0C01DFF8A4E14FEA1154A4EB135C8D
:102300001EEA430F18BF9EEA445F00F0B08023EA44
:102310006E03524221EA0451C3EB6E0338BF5B1EC9
:10232000DCF1200E25D322FA0CFE10EB0E0043FA4E
:102330000CFE41EB0E01CCF1200E03FA0EFE10EB69
:102340000E0051F10001CCF1200E29D412FA0EF248
:1023500001EB0451BDE8104058BF7047401C1CBF42
:10236000B2F1004F704700280CBF491C20F001005B
:10237000704712EB020E43EB030218BF4FF0010E41
:102380004EEA4202ACF1200CDCF11E0E54D943FAA5
:102390000CFE10EB0E0051F1FF31CCF11E0ED5D525
:1023A0000EF1010E12FA0EFE404141EB010101EB6C
:1023B000445C5FEA5C5C10D910EBDE7001EB045109
:1023C00038BFBEF1004FBDE8104018BF704700286D
:1023D0000CBF491C20F00100704730D24FEAD42CCA
:1023E00011F5001124F400641BD0B1FA81F20B3A0C
:1023F000A41AA41ED2F12003914030FA03F319432A
:10240000904001EBCC71002C01EB0451BDE8104071
:10241000A8BF704701F1C0414FF0000001F000413A
:102420007047B0FA80F310FA03F100D110BDE41A3E
:10243000173C4805C90AE4E701EB045110BD4910F7
:1024400001EB0451BDE810404FEA300002E04FF0CC
:10245000000170474A0008BF0042F8D0B2F5001FE3
:1024600028BF704701F000414FF0000070479EEA1E
:10247000445F07D011EA5E0FBDE8104004BF0021A1
:1024800000207047BDE8104070B5FFF7CBFE00BFDD
:1024900040DFF63E83F00041104670470000E0FF49
:1024A00043004FEAD30C4FEA3C0C43401FBF4007A8
:1024B0000CF1605113F0FE4F70471CF0006F03D118
:1024C00000200CF0004170470CF0004343EA5070CC
:1024D00010B540EACC0000F00CFA00BF00000092FA
:1024E0004FEA0001FFF7ECBE4FF000414FF0000053
:1024F000A1F500217047000090EA010F48BF81F06C
:10250000004100F18482421A3CBF801A89184FEAC8
:10251000D0524FF07F4C1CEA410FA2EBD15318BFB1
:102520009CEA026F00F03B804FF0004C4CEA002028
:102530004CEA012121FA03FC10EB0C0C1ED202F133
:10254000FF325FEA1C2040EBC25038BF70471CF0DE
:102550007F0F4FEA400C18BFBCF17F4F38BF704768
:10256000C3F12003994008BF20F00100BCF17F4F68
:1025700038BF7047A0F1C04000F001BA4FEA3C00FC
:10258000000A40EBC25028BF1CF0FF0F4FEA400C7E
:10259000E6D018BFBCF17F4F38BF7047EAE79CEA2E
:1025A000026F05D010EA5C0F08BF00F000407047D2
:1025B00010B500F09EF900BF64FBBE3E401058BF4E
:1025C000C0F14040491058BFC1F140418142EFF392
:1025D000008070474FF47F0C1CEAD0121EBF1CEA2B
:1025E000D11392EA0C0F93EA0C0F00F0858090EA69
:1025F000010F48BF42F4807240F4000C41F4000027
:102600002CF07F4120F07F4000B58142A2EB030215
:102610000FF2081CACEB504EC0F100009EF800E039
:102620004FEA4E0E00FB0EFC38BF49004FEA2C1C4F
:1026300002F5FA020CFB0EF34FEACE1E4FEA112C04
:102640004FEAC1210EEB635E42EB22420EFB0CFC13
:102650004FEA1C5300FB03114FEA112C4FEA0131E2
:102660000EFB0CFC4FEADC4C00FB0C11C14228BFF6
:1026700009184CEB03335DF804EB10EB410143EB1D
:10268000C250B2F57C0F38BF704729D512F0F00F59
:102690001CBF00F1C04000F0004070470081828301
:1026A0008485868788898B8C8D8E8F919293959661
:1026B00097999A9C9D9FA0A2A3A5A7A8AAACAEB0EB
:1026C000B2B3B5B7B9BCBEC0C2C5C7C9CCCED1D4F0
:1026D000D7D9DCDFE2E6E9ECF0F3F7FAFE00000020
:1026E0004FEA400C0CF1807CBCF17E4F28BF704754
:1026F000B0F1C04000F043B990EA010F0CEAD113E9
:1027000048BF42F48072624538BF634507D213F474
:102710007F0F16D080EA010000F00040704710B52E
:1027200000F0E7F8097EFC3E00F005B880EA010001
:1027300000F00040704780EA010000F0004000F027
:102740001EB912F47F0F04BF0248704780EA0100EF
:1027500000F015B90000C07F10F0004148BF4042B2
:10276000B0FA80F310FA03F2C3F19D030BD051EAE3
:10277000C35101EB1220530638BF704700F101002E
:1027800008BF20F00100704750EA010C00F11380EF
:102790001CF5000F58BFBCF5000F01D488427047EC
:1027A00007D710F5000F58BF11F5000F15D4884258
:1027B0007047894270471CF5000F04D5BCF5000F27
:1027C000F7D5814270474FF0807C1CEB400F38BF3B
:1027D0001CEB410F01D28142704710B500F089F81F
:1027E000922449004FF000504FF08051FFF7E6BEB1
:1027F0004FF47F0C1CEAD0121EBF1CEAD11392EAE0
:102800000C0F93EA0C0F00F0478090EA010F48BFCD
:1028100042F480724FF0004C4CEA00204CEA012157
:1028200002EB0302A0FB0113A2F50002002918BF6E
:1028300043F001035B0028BF4FEA330342EB22421F
:102840005FEA132C4CEBC2502EBFBCEB436FB2F5CA
:102850007C0F70474FEA036CBCF1004F08BF20F0BB
:102860000100B2F57C0F38BF70470BD582F0FF0234
:1028700012F5803FC8BF704700F1C040D8BF00F0DC
:102880000040704700F5000C5FEA4C0C48BF7047F1
:10289000B0F1C04000F073B890EA010F0CEAD11318
:1028A00048BF42F48072624538BF634504D280EA73
:1028B000010000F00040704710B500F01AF800BFAA
:1028C0008900013E00F007B800F009B85FEA410C4A
:1028D0005FEA1C6C08D080EA010000F050B85FEAA3
:1028E000400C5FEA1C6CF6D14FF00040A0F5800070
:1028F00070470EF1020E2EF0030E5EF8044B2442D8
:1029000004D44FEA4102B2F17F4F11D84FEA40039D
:10291000B3F17F4F0CD80ED14FEAD07CB2F17F4F8C
:102920000CEB4C0C0CF1020C08BF4CEBD17C04E01E
:102930004FF0080C01E04FEAD17C0CEB4C0324FA79
:1029400003F404F00704B4F1040C06D20EEB840C7B
:10295000BDE810404CF0010C6047DFE80CF00708C0
:1029600002024FF00040A0F5800010BD0846420072
:1029700018BFD2F1807288BF00F0004010BDFF2167
:1029800041EAD050C005704751EA000C00F11380B5
:102990001CF5000F58BFBCF5000F01D481427047F1
:1029A00007D711F5000F58BF10F5000F15D481425D
:1029B0007047894270471CF5000F04D5BCF5000F25
:1029C000F7D5884270474FF0807C1CEB410F38BF31
:1029D0001CEB400F01D28842704780EA010081EA77
:1029E000000180EA0100FFF7F8BE80F0004090EAA5
:1029F000010F7FF588AD81F0004100F008B80000BC
:102A000090EA010F48BF81F000413FF57CAD421ACA
:102A100004D882F00042A0EB020011444FEAD052E9
:102A20004FF07F4C1CEA410FA2EBD15318BF9CEA38
:102A3000026F4AD04FF0004C4CEA00204CEA0121D2
:102A400021FA03FCB0EB0C0C0FD412F0FE0F36D0C1
:102A50005FEA4C001DD5001240EBC25038BF7047F2
:102A60001CF03F0F18BF70470BE0A2F101025FEAB4
:102A70001C2040EBC25038BF70471CF07F0F18BFBE
:102A80007047C3F12003994014BF401E20F001009D
:102A9000704780084FEA122308BF7047B0FA80FCE5
:102AA000A2EB0C02CCF1280C60FA0CF093EA122F86
:102AB00004BF00EBC25070474FEAC3707047130A5F
:102AC0005FEADC1008BF7047F6E79CEA026F04D0AB
:102AD00010EA5C0F08BF0020704710B5FFF709FF30
:102AE00040DFF63E81F00040704700000C2B0008EC
:102AF00000000020D400000028010008E02B00089E
:102B0000D4000020A41300004401000800000000CD
:102B100000000000000000000000000000000000B5
:102B20000000000000000000002441555632303003
:102B30003000000000000000000000000000000065
:102B400000000000000000000000000D0A0000006E
:102B50000000000000000000000000000000000075
:102B60000000000000000000000000000000000065
:102B70000000000000000000000000000100000054
:102B80000000000000000000CDCCCC3C00000000A4
:102B900060E5504000000000000000000000000060
:102BA0000000000000000000010000000000000024
:102BB000000A000000000000000000000102030401
:102BC00001020304060708090204060800A24A04D9
:102BD00000000000000000000102030406070809CD
:04000005080000ED02
:00000001FF
